:040000005DEF00F0C0
:100008002E002E002E002E002E002E002E002E0078
:100018002E002E002E002E002E002E002E002E0068
:100028002E002E002E002E002E002E002E002E0058
:100038002E002E002E002E002E002E002E002E0048
:100048002E002E002E002E002E002E002E002E0038
:100058002E002E002E002E002E002E002E002E0028
:100068002E002E002E002E002E002E002E002E0018
:100078002E002E0049002E002E002E002E002E00ED
:100088002E002E002E002E002E002E002E002E00F8
:100098002E002E002E002E002E002E002E002E00E8
:1000A8002E002E002E002E002E002E002E002E00D8
:1000B800FF0009EF01F0000EBE6E000EBF6E000ECD
:1000C800C06E3F0EC66EC00EC76E370EC86EB70E36
:1000D8000401106F700E086F370E006F000E096F65
:1000E800000E016F000E116F000E026F000E0A6FF6
:1000F8004C0E126F370E036FF00E0B6F13693F0E25
:10010800046FF00E0C6F1469160E0201706F210E49
:10011800146F220E176F130E716F1200000E02017A
:100128009A6F9AA19AEF00F09CEF00F0AAEF00F006
:10013800BF8800F000F000F000F000F000F000F0E0
:1001480000F000F000F000F000F0BF9802019AA55E
:10015800B0EF00F0B2EF00F0B9EF00F0BF8800F0A8
:1001680000F000F000F000F0BF98020E02018C6F62
:100178001100EFEC00F0E1EC00F05FEC00F0FDECBA
:1001880000F0CFEC00F0D68EC08EBF8ABF98CBEFC0
:1001980000F05DEF00F00201948F640E1CEC01F09A
:1001A8007F0E13EC01F0AF84AF86AF80AF820201FF
:1001B8009B859B819B8797811200000E0001636FCE
:1001C800000E646F000E656F000E666F000E676F9D
:1001D800000E686F1200600E0001AD6F000EAF6F69
:1001E800010EB36F080EB16F000EB06F000EAC6F4A
:1001F8001200010E0201946F000E956F000E966FAB
:10020800020E8C6F000E8D6F12000401080E5D6FD8
:10021800000E5E6F000E5F6F0001BDEF00F0016E13
:10022800015001240201916F01500124936F1200C3
:10023800016E015001240201906F01500124926F58
:020248001200A2
:020000040020DA
:10000000FF0FFF0FFF0FFF0FFF0FFF0FFF0FFF0F80
:10001000FF0FFF0FFF0FFF0FFF0FFF0FFF0FFF0F70
:10002000FF0FFF0FFF0FFF0FFF0FFF0FFF0FFF0F60
:10003000FF0FFF0FFF0FFF0FFF0FFF0FFF0FFF0F50
:020000040030CA
:0A0000008CFFFFFF9FFFFFFFFFFFD3
:00000001FF
