:040000005DEF00F0C0
:10000800DA01DA01DA01DA01DA01DA01DA01DA0110
:10001800DA01DA01DA01DA01DA01DA01DA01DA0100
:10002800DA012E002E002E00DA01DA01DA01DA01F7
:10003800DA01DA01DA01DA01DA01DA01DA01DA01E0
:10004800DA01DA01DA01DA01DA01DA01DA01DA01D0
:10005800DA01DA01DA012E00DA01DA01DA01DA016D
:10006800DA01DA01DA01DA01DA01DA01DA012E005D
:1000780065016501650165012E00DA01DA01DA0121
:10008800DA01DA01DA01DA012E00DA012E00DA01EA
:10009800DA01DA01DA01DA01DA01DA01DA01DA0180
:1000A800DA012E002E00DA01DA01DA01DA01DA01CA
:1000B800FF0049EF02F0F1EC02F00009D8B467EF55
:1000C80000F069EF00F078EF00F09BEC03F0ADEC86
:1000D80003F0FF0E4CEC03F0A7EC03F0000E166ED5
:1000E800000E156EF9EF00F09BEC03F012EC03F034
:1000F8000009D8B482EF00F084EF00F096EF00F02A
:1001080007EC03F00009D8B48CEF00F08EEF00F094
:1001180092EF00F0010E166EDAEF00F0020E166E86
:10012800DAEF00F007EC03F00009D8B49EEF00F016
:10013800A0EF00F0A4EF00F0030E166EDAEF00F067
:10014800040E166EDAEF00F08FEC02F0ADEC03F05F
:10015800E6EC02F00009D8B4B4EF00F0B6EF00F016
:10016800F7EF00F061EC02F0F7EF00F08FEC02F02F
:10017800ADEC03F0F7EF00F0E6EC02F00009D8B4BC
:10018800C8EF00F0CAEF00F0F7EF00F0B6EF00F0AC
:10019800FCEC02F00009D8B4D4EF00F0D6EF00F080
:1001A800F7EF00F078EC02F0F7EF00F016501B6E56
:1001B8001C6A1C50000AD8B4E4EF00F0F7EF00F016
:1001C8001B50010AD8B4A8EF00F0030AD8B4BAEF5C
:1001D80000F0010AD8B4C0EF00F0070AD8B4CCEF99
:1001E80000F0F7EF00F0A7EC03F01200B7A0FFEF64
:1001F80000F001EF01F0FAEF00F0000E136E0201BB
:10020800B2A709EF01F00BEF01F019EF01F013822B
:1002180002D819EF01F00500FA6E0550FD6E065080
:10022800FE6EF850FF6EFA5012000201B2A31FEFE3
:1002380001F021EF01F02FEF01F0138402D82FEF26
:1002480001F00500FA6E0350FD6E0450FE6EF85082
:10025800FF6EFA5012001350D8B435EF01F037EFA3
:1002680001F044EF01F002D844EF01F00500FA6E06
:100278000150FD6E0250FE6EF850FF6EFA501200EB
:100288000201A15112001DEC03F0640E3AEC03F0D8
:100298007F0E31EC03F0BE0E1F6E000E206E87EC51
:1002A80003F0000E1F6E000E206E8CEC03F04E0E55
:1002B8001F6E060E206E78EC03F05E0E1F6E040EA5
:1002C800206E82EC03F03E0E1F6E070E206E91EC3E
:1002D80003F0000E1F6E000E206E7DEC03F043EC61
:1002E80003F0C896C89C04011097109D1197119DA2
:1002F8001287128D130E0201706F220E146F210ED9
:10030800176F160E716F1200F3EC01F015EC02F086
:10031800D9EC02F0BAEC02F0BFEC01F0A6EC02F066
:10032800D68ED68C010E54EC03F0010E5BEC03F074
:10033800010E62EC03F0FAEC00F0BF88090E226EA1
:100348001E0E216EE40EE82EFED7212EFCD7222E9B
:10035800FAD700D0BF98090E226E1E0E216EE40E49
:10036800E82EFED7212EFCD7222EFAD700D09FEFF9
:1003780001F05DEF00F0000E0201A56F000EA66F00
:10038800000EA76F000EA86F000EA96F000EAA6FCF
:10039800B80EAB6F800EAC6F000EAD6F070EAE6F70
:1003A800000EAF6F000EB06F000EB16F000EB26F8F
:1003B800000EB36F620E1F6E070E206E6EEC03F018
:1003C800600E1F6E070E206E69EC03F0640E1F6E40
:1003D800070E206E73EC03F0000E136E1200D68A1F
:1003E800000ED6BE010E1F6ED69E550E0401596F23
:1003F800AA0E596F5991000E5F6F000E5E6F080EBE
:100408005D6F550E596FAA0E596F59811FB002D0F2
:10041800D69E01D0D68E03016E876E816E856E835F
:100428001200000E0001636F000E646F000E656F0E
:10043800000E666F000E676F000E686F600EAD6F7E
:10044800000EAF6F010EB36F080EB16F000EB06FE4
:10045800000EAC6F1200AAEC03F0186E1550D8A469
:1004680038EF02F03AEF02F03EEF02F018C514F54B
:1004780047EF02F0600E1424D96EDA6A050EDA220C
:10048800610060F4DFF4152A120001EE60F1800EBD
:10049800EE6AE806FDE101EE01F1190EEE6AE806E2
:1004A800FDE10401080E5D6F000E5E6F000E5F6FC8
:1004B800000EF86E000188EF01F00D500E10D8B450
:1004C80068EF02F06AEF02F077EF02F002D877EFF8
:1004D80002F00500FA6E0D50FD6E0E50FE6EF850DB
:1004E800FF6EFA50120012000F501010D8B47FEFB0
:1004F80002F081EF02F08EEF02F002D88EEF02F0E8
:100508000500FA6E0F50FD6E1050FE6EF850FF6E2B
:10051800FA50120012000B500C10D8B496EF02F0EB
:1005280098EF02F0A5EF02F002D8A5EF02F005005F
:10053800FA6E0B50FD6E0C50FE6EF850FF6EFA50BE
:1005480012001200800E0001706F000E716F000E15
:10055800726F000E736F190E0201036F04010081A0
:1005680000830085C680C682C6941200010E02016F
:10057800946F000E956F000E966F000E8C6F000E34
:100588008D6F000E9D6F47EC01F012006100E8F3DB
:100598001DF56100ECF31EF55FEC00F0610078F4E6
:1005A800FBF4610074F4FAF41100C68804010099A0
:1005B800C68A009BC798C79AC79CC78E089FC894CD
:1005C800C89E1200020199BBECEF02F0EFEF02F0B7
:1005D800010EF0EF02F0000E120002019AB5F7EFDB
:1005E80002F0FAEF02F0010EFBEF02F0000E12002B
:1005F800020199B102EF03F005EF03F0010E06EFD7
:1006080003F0000E1200020198B90DEF03F010EF8D
:1006180003F0010E11EF03F0000E1200020198A77B
:1006280018EF03F01BEF03F0010E1CEF03F0000EB0
:100638001200020194BF23EF03F025EF03F026EF29
:1006480003F0948F1200600E1424D96EDA6A050E36
:10065800DA22DF5096EC03F012001F6E1F501F24A1
:100668000201916F1F501F24936F12001F6E1F50BD
:100678001F240201906F1F501F24926F1200AF8435
:10068800AF86AF80AF8202019B859B87978112005E
:100698001A6E610068F48CF2000E02018D6F120070
:1006A8001F6E1FB002D0BF9A01D0BF8A12001F6E02
:1006B8001FB002D0BF9C01D0BF8C12001F6E1FB0AC
:1006C80002D0C09E01D0C08E12001FC503F520C500
:1006D80004F512001FC505F520C506F512001FC553
:1006E80001F520C502F512001FC50DF520C50EF550
:1006F80012001FC507F520C508F512001FC50FF524
:1007080020C510F512001FC511F520C512F51200FD
:100718001FC509F520C50AF512001FC50BF520C530
:100728000CF512001A6E610068F48BF21200000ECC
:1007380002019A6F1200A3EC03F0176E1200020177
:10074800D8908E31120002019499120002018A5148
:0E075800120002019985120012001200120018
:0207680011007E
:020000040020DA
:10000000FF0FFF0FFF0FFF0FFF0FFF0FFF0FFF0F80
:10001000FF0FFF0FFF0FFF0FFF0FFF0FFF0FFF0F70
:020000040030CA
:0A0000008CFFFFFF9FFFFFFFFFFFD3
:00000001FF
