:040000005DEF00F0C0
:100008003E023E023E023E023E023E023E023E02E8
:100018003E023E0287013E023E023E023E023E0290
:100028003E022E002E002E003E023E023E023E02FE
:100038003E023E023E023E021F013E023E02070110
:100048003E023E023E023E023E023E023E023E02A8
:100058003E023E023E022E003E023E023E023E02AA
:100068003E023E023E023E023E023E023E022E009A
:1000780030003000300030002E003E023E023E02CA
:100088003E023E023E023E022E003E022E003E028C
:100098003E023E023E023E023E023E023E023E0258
:1000A8003E022E002E003E023E023E023E023E026C
:0600B800FF0097EF03F0CA
:1000C000020194999AA567EF00F069EF00F071EFD3
:1000D00000F099858C69000E8D6F000E126EC3EFD3
:1000E00000F098B776EF00F078EF00F091EF00F0B5
:1000F000998598A97EEF00F080EF00F0C3EF00F043
:1001000099AB85EF00F087EF00F0C3EF00F0600ED1
:100110001124D96EDA6A050EDA22DF508B6FC3EF35
:1001200000F098A996EF00F098EF00F0A1EF00F032
:1001300099AB9DEF00F09FEF00F0A1EF00F087EF8B
:1001400000F099A1A6EF00F0A8EF00F0C3EF00F0D7
:10015000600028FA15F51250D8A4B1EF00F0B3EF03
:1001600000F0B7EF00F015C511F5C0EF00F0600E1C
:100170001124D96EDA6A050EDA22610054F4DFF434
:10018000122AC3EF00F0000E9A6F979D979B9799E4
:10019000000E0501756F1100000E186EDBEF00F008
:1001A000090E1864D6EF00F0D8EF00F0DBEF00F096
:1001B000000E27EF01F0B7A0E0EF00F0E2EF00F053
:1001C000D0EF00F0000E176E0201B2A7EAEF00F0C8
:1001D000ECEF00F0FAEF00F0178202D8FAEF00F02F
:1001E0000500FA6E3950FD6E3A50FE6EF850FF6E03
:1001F000FA5012000201B2A300EF01F002EF01F089
:1002000010EF01F0178402D810EF01F00500FA6E2C
:100210003750FD6E3850FE6EF850FF6EFA501200E7
:100220001750D8B416EF01F018EF01F025EF01F0E8
:1002300002D825EF01F00500FA6E3550FD6E3650FC
:10024000FE6EF850FF6EFA5012000201A15112002A
:10025000BF98000E0501766FCCEC00F0AA0AD8A476
:1002600034EF01F036EF01F02CEF01F0000E276EB5
:10027000000E266E000E296E000E286ECCEC00F0EB
:10028000284A292A29BE4EEF01F0295009E10C0E17
:10029000285CD8A04EEF01F050EF01F03EEF01F0E6
:1002A000CCEC00F0AA0AD8B458EF01F05AEF01F0F4
:1002B0005CEF01F06CEF01F0264A272A27BE6AEFB7
:1002C00001F0275009E10A0E265CD8A06AEF01F080
:1002D0006CEF01F03AEF01F01200000EBE6EE00E7E
:1002E000BF6E840EC06E3B0EC66E800EC76E330EA0
:1002F000C86E320E0401106F000E086F070E006FFB
:10030000000E096F000E016F000E116F000E026FDC
:10031000000E0A6F480E126F370E036FF00E0B6F50
:1003200013693F0E046FF00E0C6F1469130E020177
:10033000706F220E146F190E036F210E176F100EBF
:10034000726F160E716F1200000E0301D96F000E4E
:10035000DA6F000EDB6F000EDC6F000EDF6F000E39
:10036000E06F000EE56F000EE76F000EEC6FEE69B8
:100370001F0EEF6F000EF06F010EF16F000EF26FA7
:10038000000EF46F100EF56F000EF66F000EF76F93
:10039000000EF86F020EF96F3F0EFA6F840EF36FC6
:1003A000B494A984640E266E060E276E5AEC04F0EF
:1003B0001200000E0201A56F000EA66F000EA76FBF
:1003C000000EA86F000EA96F000EAA6FB80EAB6FDB
:1003D000800EAC6F000EAD6F070EAE6F000EAF6FEC
:1003E000000EB06F000EB16F000EB26F000EB36F53
:1003F000F20E266E080E276E46EC04F0F00E266E06
:10040000080E276E41EC04F0F40E266E080E276EDF
:0A0410004BEC04F0000E176E120012
:10041C00610060F31EF56100E8F31FF56100ECF379
:10042C0020F5B69E34500301196F6100CCF418F31B
:10043C0031503210D8B425EF02F027EF02F034EF30
:10044C0002F002D834EF02F00500FA6E3150FD6E66
:10045C003250FE6EF850FF6EFA501200610080F4BC
:10046C00FBF461007CF4FAF4610078F4D8F4110028
:10047C00610060F323F56100E8F324F56100ECF30F
:10048C0025F5B6982FC521F530C522F5AFEC03F054
:10049C002D502E10D8B455EF02F057EF02F064EF48
:1004AC0002F002D864EF02F00500FA6E2D50FD6EDA
:1004BC002E50FE6EF850FF6EFA501200610094F44C
:1004CC00FBF4610090F4FAF461008CF4D8F41100A0
:1004DC00C6EC03F09CEC02F0D68ED68C28EC01F026
:1004EC00BF88010E0501766F000E2A6E600E2A245D
:1004FC00D96EDA6A050EDA22CCEC00F0DF6E2A2A0D
:10050C000B0E2A648CEF02F08EEF02F07CEF02F0FF
:10051C00CCEC00F0AA0AD8B496EF02F098EF02F0F7
:10052C0076EF02F074EF02F05DEF00F01CEC04F0DB
:10053C00640E2FEC04F07F0E26EC04F0000E266EF9
:10054C00000E276E6EEC04F0000E266E000E276E69
:10055C005FEC04F0000E266E000E276E69EC04F0C2
:10056C00000E266E000E276E73EC04F0000E266E45
:10057C00000E276E64EC04F038EC04F01200D68AFE
:10058C00000ED6BE010E266ED69E550E0401596F76
:10059C00AA0E596F5991000E5F6F000E5E6F080E18
:1005AC005D6F550E596FAA0E596F598126B002D046
:1005BC00D69E01D0D68E03016A9F6E876E816E85A2
:1005CC006E8368856A991200010E0126000E0222C4
:1005DC0003220422182ACEB8F6EF02F0FAEF02F04A
:1005EC00216A212AFBEF02F0216A21500108050142
:1005FC006D6FCEBA04EF03F008EF03F0216A212AE5
:10060C0009EF03F0216A2150010805016E6F1200F9
:10061C006100E8F31CF56100ECF31DF5B4942B506C
:10062C002C10D8B41CEF03F01EEF03F02BEF03F0EB
:10063C0002D82BEF03F00500FA6E2B50FD6E2C50F8
:10064C00FE6EF850FF6EFA501200610074F4FBF469
:10065C00610070F4FAF4110019501A6E1B6AD890EC
:10066C001A361B36700E1A24D96E050E1B20DA6E44
:10067C00EAC3DFF419501A6E1B6AD8901A361B366F
:10068C00710E1A24D96E050E1B20DA6EEBC3DFF443
:10069C0019500108196E195014090301EC6F12005E
:1006AC00000E0301156F000E166F040E176F136901
:1006BC00E10E126FB698125160004CFC28F5296AB5
:1006CC0028C529F5286A28102F6E2950306EAB8862
:1006DC00D40E266E050E276E50EC04F0010E0301AD
:1006EC00146F1200A40E03011B6F850E196FEE0E12
:1006FC00186F1851600064FC28F5296A28C529F583
:10070C00286A2810336E2950346EB69EAB8E0A0EB2
:10071C00266E080E276E55EC04F0900E03011A6F2E
:10072C00120001EE60F1800EEE6AE806FDE101EECA
:10073C0001F1190EEE6AE806FDE10401080E5D6F89
:10074C00000E5E6F000E5F6F000EF86E00016EEF14
:10075C0002F0030114A5B5EF03F0B7EF03F0C0EFFF
:10076C0003F014912250136F610084F412F314817E
:10077C00C5EF03F02250136F610084F412F31200E2
:10078C00C5EC02F0DBEC03F0F7EC03F06DEC01F0E0
:10079C00E9EC03F012EC04F0A4EC01F056EC03F0DD
:1007AC0078EC03F0D9EC01F01200000E0001636F3D
:1007BC00000E646F000E656F000E666F000E676FA3
:1007CC00000E686F1200600E0001AD6F000EAF6F6F
:1007DC00010EB36F080EB16F000EB06F000EAC6F50
:1007EC001200810E0201946F000E956F000E966F31
:1007FC00000E8C6F000E8D6F7F0E9D6F1200050129
:10080C00752BB40E75650DEF04F00FEF04F011EFBE
:10081C0004F0000E756F1200800E0001706F000E58
:10082C00716F000E726F000E736F1200020194BF95
:10083C0022EF04F024EF04F025EF04F0948F120063
:10084C00266E265026240201916F26502624936F83
:10085C001200266E265026240201906F2650262464
:10086C00926F1200AF84AF86AF80AF8202019B857E
:10087C009B879781120026C537F527C538F51200DE
:10088C0026C539F527C53AF5120026C535F527C515
:10089C0036F5120026C52DF527C52EF5120026C5F6
:1008AC0031F527C532F5120026C52BF527C52CF5D9
:1008BC00120026C50BF527C50CF5120026C505F54B
:1008CC0027C506F5120026C50DF527C50EF5120035
:1008DC0026C507F527C508F5120026C509F527C555
:0A08EC000AF51200120012001200BB
:0208F8001100ED
:020000040020DA
:10000000FF0FFF0FFF0FFF0FFF0FFF0FFF0FFF0F80
:10001000FF0FFF0FFF0FFF0FFF0FFF0FFF0FFF0F70
:020000040030CA
:0A0000008CFFFFFF9FFFFFFFFFFFD3
:00000001FF
