:040000005DEF00F0C0
:100008003102310231023102310231023102310250
:100018003102310269013102310231023102310209
:1000280031022E002E002E0031023102310231023F
:100038003102310231023102150131023102FD0073
:100048003102310231023102310231023102310210
:100058003102310231022E00310231023102310205
:1000680031023102310231023102310231022E00F5
:1000780030003000300030002E00310231023102F1
:1000880031023102310231022E0031022E003102DA
:1000980031023102310231023102310231023102C0
:1000A80031022E002E0031023102310231023102BA
:0600B800FF007EEF03F0E3
:1000C000020194999AA567EF00F069EF00F071EFD3
:1000D00000F099858C69000E8D6F000E126EC3EFD3
:1000E00000F098B776EF00F078EF00F091EF00F0B5
:1000F000998598A97EEF00F080EF00F0C3EF00F043
:1001000099AB85EF00F087EF00F0C3EF00F0600ED1
:100110001124D96EDA6A050EDA22DF508B6FC3EF35
:1001200000F098A996EF00F098EF00F0A1EF00F032
:1001300099AB9DEF00F09FEF00F0A1EF00F087EF8B
:1001400000F099A1A6EF00F0A8EF00F0C3EF00F0D7
:10015000600028FA15F51250D8A4B1EF00F0B3EF03
:1001600000F0B7EF00F015C511F5C0EF00F0600E1C
:100170001124D96EDA6A050EDA22610054F4DFF434
:10018000122AC3EF00F0000E9A6F979D979B9799E4
:10019000000E0501756F1100B7A0D1EF00F0D3EF8D
:1001A00000F0CCEF00F0000E176E0201B2A7DBEFFB
:1001B00000F0DDEF00F0EBEF00F0178202D8EBEF7C
:1001C00000F00500FA6E3850FD6E3950FE6EF850A2
:1001D000FF6EFA5012000201B2A3F1EF00F0F3EF4C
:1001E00000F001EF01F0178402D801EF01F00500E3
:1001F000FA6E3650FD6E3750FE6EF850FF6EFA50B4
:1002000012001750D8B407EF01F009EF01F016EF14
:1002100001F002D816EF01F00500FA6E3450FD6EC1
:100220003550FE6EF850FF6EFA5012000201A151D7
:100230001200CCEC00F0AA0AD8A421EF01F023EFC1
:1002400001F019EF01F0000E266E000E256E000E73
:10025000286E000E276ECCEC00F0274A282A28BE14
:100260003BEF01F0285009E10C0E275CD8A03BEFD2
:1002700001F03DEF01F02BEF01F0CCEC00F0AA0A09
:10028000D8B445EF01F047EF01F049EF01F059EF25
:1002900001F0254A262A26BE57EF01F0265009E133
:1002A0000A0E255CD8A057EF01F059EF01F027EFB7
:1002B00001F01200000EBE6EE00EBF6E840EC06E26
:1002C0003B0EC66E800EC76E330EC86E320E040132
:1002D000106F000E086F070E006F000E096F000E02
:1002E000016F000E116F000E026F000E0A6F480EB4
:1002F000126F370E036FF00E0B6F13693F0E046F12
:10030000F00E0C6F1469130E0201706F220E146F41
:10031000190E036F210E176F100E726F160E716F8C
:100320001200000E0301D96F000EDA6F000EDB6FB2
:10033000000EDC6F000EDF6F000EE06F000EE56F49
:10034000000EE76F000EEC6FEE691F0EEF6F000EF0
:10035000F06F010EF16F000EF26F000EF46F100ED1
:10036000F56F000EF66F000EF76F000EF86F020EBD
:10037000F96F3F0EFA6F840EF36FB494A984EC0EFC
:10038000256E050E266E41EC04F01200000E0201EF
:10039000A56F000EA66F000EA76F000EA86F000ECF
:1003A000A96F000EAA6FB80EAB6F800EAC6F000E77
:1003B000AD6F070EAE6F000EAF6F000EB06F000E88
:1003C000B16F000EB26F000EB36FC00E256E080E37
:1003D000266E2DEC04F0BE0E256E080E266E28EC5F
:1003E00004F0C20E256E080E266E32EC04F0000EEC
:1003F000176E1200610060F31DF56100E8F31EF551
:100400006100ECF31FF5B69E33500301196F6100D4
:10041000C8F418F330503110D8B411EF02F013EFD4
:1004200002F020EF02F002D820EF02F00500FA6E91
:100430003050FD6E3150FE6EF850FF6EFA501200D3
:1004400061007CF4FBF4610078F4FAF4610074F468
:10045000D8F41100610060F322F56100E8F323F5A0
:100460006100ECF324F5B6982EC520F52FC521F5D3
:1004700096EC03F02C502D10D8B441EF02F043EF6E
:1004800002F050EF02F002D850EF02F00500FA6ED1
:100490002C50FD6E2D50FE6EF850FF6EFA5012007B
:1004A000610090F4FBF461008CF4FAF4610088F4CC
:1004B000D8F41100ADEC03F084EC02F0D68ED68CAB
:1004C00019EC01F0000E296E600E2924D96EDA6A4B
:1004D000050EDA22CCEC00F0DF6E292A0B0E29641F
:1004E00074EF02F076EF02F064EF02F0CCEC00F073
:1004F000AA0AD8B47EEF02F080EF02F062EF02F0B9
:1005000060EF02F05DEF00F003EC04F0640E16EC17
:1005100004F07F0E0DEC04F0000E256E000E266E2A
:1005200055EC04F0000E256E000E266E46EC04F02D
:10053000000E256E000E266E50EC04F0000E256EA7
:10054000000E266E5AEC04F0000E256E000E266E8C
:100550004BEC04F01FEC04F01200D68A000ED6BE5D
:10056000010E256ED69E550E0401596FAA0E596FC5
:100570005991000E5F6F000E5E6F080E5D6F550E95
:10058000596FAA0E596F598125B002D0D69E01D05D
:10059000D68E03016A9F6E876E816E856E83688535
:1005A0006A9912006100E8F31BF56100ECF31CF599
:1005B000B4942A502B10D8B4E0EF02F0E2EF02F02E
:1005C000EFEF02F002D8EFEF02F00500FA6E2A50CA
:1005D000FD6E2B50FE6EF850FF6EFA501200610057
:1005E00070F4FBF461006CF4FAF411001850196E09
:1005F0001A6AD89019361A36700E1924D96E050E5B
:100600001A20DA6EEAC3DFF41850196E1A6AD8900D
:1006100019361A36710E1924D96E050E1A20DA6EA3
:10062000EBC3DFF418500108186E185014090301C9
:10063000EC6F1200010E0126000E0222032204229A
:10064000CEB825EF03F029EF03F0206A202A2AEF25
:1006500003F0206A2050010805016D6FCEBA33EF18
:1006600003F037EF03F0206A202A38EF03F0206A06
:100670002050010805016E6F1200000E0301156F76
:10068000000E166F040E176F1369E10E126FB69805
:10069000125160004CFC27F5286A27C528F5276A07
:1006A00027102E6E28502F6EAB88340E256E060E46
:1006B000266E37EC04F0010E0301146F1200A40E35
:1006C00003011B6F850E196FEE0E186F1851600035
:1006D00064FC27F5286A27C528F5276A2710326E9B
:1006E0002850336EB69EAB8ED80E256E070E266E42
:1006F0003CEC04F0900E03011A6F120001EE60F161
:10070000800EEE6AE806FDE101EE01F1180EEE6AD8
:10071000E806FDE10401080E5D6F000E5E6F000E3D
:100720005F6F000EF86E00015AEF02F0030114A58E
:100730009CEF03F09EEF03F0A7EF03F0149121501C
:10074000136F610080F412F31481ACEF03F02150B9
:10075000136F610080F412F31200ADEC02F0C2ECF2
:1007600003F0DEEC03F05AEC01F0D0EC03F0F9EC0E
:1007700003F091EC01F03DEC03F05FEC03F0C6EC0C
:1007800001F01200000E0001636F000E646F000E96
:10079000656F000E666F000E676F000E686F1200C7
:1007A000600E0001AD6F000EAF6F010EB36F080E4B
:1007B000B16F000EB06F000EAC6F1200810E02011F
:1007C000946F000E956F000E966F000E8C6F000EEA
:1007D0008D6F7F0E9D6F12000501752BB40E756530
:1007E000F4EF03F0F6EF03F0F8EF03F0000E756F8F
:1007F0001200800E0001706F000E716F000E726F9C
:10080000000E736F1200020194BF09EF04F00BEFAA
:1008100004F00CEF04F0948F1200256E255025246F
:100820000201916F25502524936F1200256E2550EB
:1008300025240201906F25502524926F1200AF8469
:10084000AF86AF80AF8202019B859B8797811200A4
:1008500025C536F526C537F5120025C538F526C558
:1008600039F5120025C534F526C535F5120025C524
:100870002CF526C52DF5120025C530F526C531F518
:10088000120025C52AF526C52BF5120025C50BF546
:1008900026C50CF5120025C505F526C506F512007E
:1008A00025C50DF526C50EF5120025C507F526C58B
:1008B00008F5120025C509F526C50AF51200120033
:0608C000120012001100FD
:020000040020DA
:10000000FF0FFF0FFF0FFF0FFF0FFF0FFF0FFF0F80
:10001000FF0FFF0FFF0FFF0FFF0FFF0FFF0FFF0F70
:020000040030CA
:0A0000008CFFFFFF9FFFFFFFFFFFD3
:00000001FF
