:040000005DEF00F0C0
:100008001C011C011C011C011C011C011C011C0100
:100018001C011C01C4001C011C011C011C011C0149
:100028001C012E002E002E001C011C011C011C01AD
:100038001C011C011C011C019A001C011C018200EE
:100048001C011C011C011C011C011C011C011C01C0
:100058001C011C011C012E001C011C011C011C019F
:100068001C011C011C011C011C011C011C012E008F
:1000780030003000300030002E001C011C011C0133
:100088001C011C011C011C012E001C012E001C015E
:100098001C011C011C011C011C011C011C011C0170
:1000A8001C012E002E001C011C011C011C011C013E
:0600B800FF00D0EF01F093
:1000C000020194999AA567EF00F069EF00F071EFD3
:1000D00000F099858C69000E8D6F000E226EC3EFC3
:1000E00000F098B776EF00F078EF00F091EF00F0B5
:1000F000998598A97EEF00F080EF00F0C3EF00F043
:1001000099AB85EF00F087EF00F0C3EF00F0600ED1
:100110002124D96EDA6A050EDA22DF508B6FC3EF25
:1001200000F098A996EF00F098EF00F0A1EF00F032
:1001300099AB9DEF00F09FEF00F0A1EF00F087EF8B
:1001400000F099A1A6EF00F0A8EF00F0C3EF00F0D7
:10015000600028FA25F52250D8A4B1EF00F0B3EFE3
:1001600000F0B7EF00F025C521F5C0EF00F0600EFC
:100170002124D96EDA6A050EDA22610094F4DFF4E4
:10018000222AC3EF00F0000E9A6F979D979B9799D4
:10019000000E0501756F1100000EBE6E800EBF6E61
:1001A000040EC06E3B0EC66E800EC76E330EC86E58
:1001B000320E0401106F000E086F070E006F000E64
:1001C000096F000E016F000E116F000E026F000E1E
:1001D0000A6F480E126F370E036FF00E0B6F136924
:1001E0003F0E046FF00E0C6F1469130E0201706F56
:1001F000220E146F190E036F210E176F100E726FFF
:06020000160E716F1200E2
:10020800610060F32EF56100E8F32FF56100ECF36F
:1002180030F5B69E0E500301196F610034F418F3DF
:100228000B500C10D8B41BEF01F01DEF01F02AEFB2
:1002380001F002D82AEF01F00500FA6E0B50FD6EAE
:100248000C50FE6EF850FF6EFA5012006100C0F4B8
:10025800FBF46100BCF4FAF46100B8F4D8F41100BE
:10026800610060F333F56100E8F334F56100ECF305
:1002780035F5B69809C531F50AC532F5E8EC01F04F
:1002880007500810D8B44BEF01F04DEF01F05AEFCA
:1002980001F002D85AEF01F00500FA6E0750FD6E22
:1002A8000850FE6EF850FF6EFA5012006100D4F448
:1002B800FBF46100D0F4FAF46100CCF4D8F4110036
:1002C800010E0126000E022203220422282ACEB89B
:1002D80070EF01F074EF01F0316A312A75EF01F027
:1002E800316A3150010805016D6FCEBA7EEF01F019
:1002F80082EF01F0316A312A83EF01F0316A31501F
:10030800010805016E6F12006100E8F32CF5610029
:10031800ECF32DF5B49405500610D8B496EF01F01F
:1003280098EF01F0A5EF01F002D8A5EF01F0050064
:10033800FA6E0550FD6E0650FE6EF850FF6EFA50CC
:1003480012006100B4F4FBF46100B0F4FAF4110097
:1003580029502A6E2B6AD8902A362B36700E2A24FA
:10036800D96E050E2B20DA6EEAC3DFF429502A6E07
:100378002B6AD8902A362B36710E2A24D96E050E90
:100388002B20DA6EEBC3DFF429500108296E2950BF
:1003980014090301EC6F120001EE60F1800EEE6AA1
:1003A800E806FDE101EE01F1290EEE6AE806FDE13D
:1003B8000401080E5D6F000E5E6F000E5F6F000E89
:1003C800F86E000128EF02F0030114A5EEEF01F02A
:1003D800F0EF01F0F9EF01F014913250136F610062
:1003E800C4F412F31481FEEF01F03250136F610070
:1003F800C4F412F31200000E0001636F000E646F64
:10040800000E656F000E666F000E676F000E686F56
:100418001200600E0001AD6F000EAF6F010EB36FDA
:10042800080EB16F000EB06F000EAC6F1200050120
:10043800752BB40E756523EF02F025EF02F027EF58
:1004480002F0000E756F120031EC02F0F29E03000C
:1004580000F02DEF02F05DEF00F0FFEC01F0CCECC6
:0A04680000F00DEC02F0120011008C
:020000040020DA
:10000000FF0FFF0FFF0FFF0FFF0FFF0FFF0FFF0F80
:10001000FF0FFF0FFF0FFF0FFF0FFF0FFF0FFF0F70
:10002000FF0FFF0FFF0FFF0FFF0FFF0FFF0FFF0F60
:10003000FF0FFF0FFF0FFF0FFF0FFF0FFF0FFF0F50
:020000040030CA
:0A0000008CFFFFFF9FFFFFFFFFFFD3
:00000001FF
