:04000000FEEF7FF0A0
:101600000090220A20FA2128169C18441A00185A21
:1016100022162312235E20BE22C6224C22B6223E70
:1016200022541D7E1C302200C6EC10F00009D8B4F4
:101630001CEF0BF01EEF0BF057EF0BF02BEF0BF046
:101640002DEC11F0A2EF0BF08BEC11F0A2EF0BF0F0
:10165000000EA2EF0BF013C52FF514C530F502D81C
:101660003BEF0BF00500FA6E0750FD6E0850FE6E62
:10167000FF6AFA501200316E326A3250000AD8B452
:1016800044EF0BF028EF0BF03150010AD8B428EFEB
:101690000BF0030AD8B420EF0BF0010AD8B424EF02
:1016A0000BF0070AD8B428EF0BF028EF0BF0BBECD7
:1016B00010F00009D8B45FEF0BF061EF0BF0A1EF71
:1016C0000BF02450030B0009D8B469EF0BF06BEF5B
:1016D0000BF077EF0BF0010E316E2450030B326EDE
:1016E0003150325E24503218FC0B3218246E6100E7
:1016F00078F4D9F461007CF4DAF4DF50356E1E4AD8
:101700001F2A2006D8A0210620502110D8A48BEF34
:101710000BF08DEF0BF095EF0BF022EC0DF0316E2E
:101720003150336E346A99EF0BF0000E346E030EB5
:10173000336E33C536F535504DEC11F03650A2EF0F
:101740000BF0030E1200B0EC10F0C0940F0E3B6EC5
:101750006B0E5EEC0DF0406E6B0E4018D8A4B3EF2C
:101760000BF0B5EF0BF0B9EF0BF0C088C096C9EFE6
:101770000BF0C086C098090E3F6E1E0E3E6EE40E42
:10178000E82EFED73E2EFCD73F2EFAD700D0A6EF8C
:101790000BF0180E3B6E020E3C6E6B0E08EC0EF05A
:1017A000100E3B6EA00E3C6E6B0E08EC0EF0110E90
:1017B0003B6EAC0E3C6E6B0E08EC0EF0180E3B6EE2
:1017C000000E3C6E6B0E08EC0EF0AA0E8CEC10F0C6
:1017D000220E426E42C53BF56B0E5EEC0DF0416E83
:1017E00041508CEC10F0422A2D0E4264FAEF0BF0BF
:1017F000FCEF0BF0EAEF0BF0E5EF0BF0FEEF7FF004
:10180000248821EF0CF07AEC11F0080E4DEF0CF06B
:101810007AEC11F0070E4DEF0CF0202810EC11F0CF
:10182000040E4DEF0CF0070E2218D8B41AEF0CF08E
:101830001CEF0CF01EEF0CF07DEC11F00F0E4DEFD5
:101840000CF00DC52FF50EC530F502D831EF0CF0B8
:101850000500FA6E0150FD6E0250FE6EFF6AFA50EE
:101860001200316E326A3250000AD8B43AEF0CF0EE
:1018700013EF0CF03150010AD8B413EF0CF0030A47
:10188000D8B408EF0CF0010AD8B403EF0CF0070A43
:10189000D8B40DEF0CF013EF0CF01200D1EC10F0F7
:1018A0000009D8A456EF0CF058EF0CF05BEF0CF0E9
:1018B000040E99EF0CF02450030B0009D8B463EF29
:1018C0000CF065EF0CF071EF0CF0010E336E24504C
:1018D000030B346E3350345E24503418FC0B341830
:1018E000246E2006D8A0210620502110D8B47BEF0A
:1018F0000CF07DEF0CF08AEF0CF077EC11F061004A
:1019000078F4D9F461007CF4DAF4DF6E1E4A1F2A01
:1019100058EF0CF000EC0CF0356E77EC11F0610034
:1019200078F4D9F461007CF4DAF4DF6E1E4A1F2AE1
:1019300035501200266E010E276E24B6A2EF0CF071
:10194000A4EF0CF0DFEF0CF026C51DF524942486DF
:10195000FC0E24160F0E226E010E1C6EF40E1B6E72
:1019600024881E0E016E230E026E000E0D6E000EF8
:101970000E6E1E0E036E230E046E000E0F6E000E12
:10198000106E1E0E056E230E066E000E116E000EFA
:10199000126E1E0E076E230E086E000E136E000EE2
:1019A000146E1A0E096E230E0A6E000E156E000ECE
:1019B000166E67EC11F07FEC0FF0000E276E2750CB
:1019C00012002A6E26502710D8B4E9EF0CF0EBEF86
:1019D0000CF009EF0DF02A50020D010EF324D96E20
:1019E000050EF420DA6E610098F4DEF461009CF4D8
:1019F000DDF42A50020D0D0EF324D96E050EF420ED
:101A0000DA6E6100A0F4DEF46100A4F4DDF421EFED
:101A10000DF02A50020D010EF324D96E050EF420AC
:101A2000DA6E1E0EDE6E230EDD6E2A50020D0D0ED6
:101A3000F324D96E050EF420DA6E000EDE6E000E71
:101A4000DD6E1200248835EF0DF07AEC11F0070EF0
:101A50005DEF0DF0202810EC11F0030E5DEF0DF09E
:101A60007DEC11F00A0E5DEF0DF00DC52FF50EC5E2
:101A700030F502D845EF0DF00500FA6E0150FD6E0D
:101A80000250FE6EFF6AFA501200316E326A325016
:101A9000000AD8B44EEF0DF030EF0DF03150010ACE
:101AA000D8B430EF0DF0030AD8B425EF0DF0060AD4
:101AB000D8B42AEF0DF030EF0DF012003C6E000E9E
:101AC0003D6E3C509AEC0CF00009D8B46AEF0DF072
:101AD0006CEF0DF061EF0DF0B20E2B6E1F0E2C6E41
:101AE0003D0E2D6E050E2E6EA4EC10F03B0E266EF4
:101AF000050E276E000E296E010E286E43EC10F0C5
:101B0000000E2B6E000E2C6E000E2D6E000E2E6E33
:101B100098EC10F057EC11F01AEC10F0E806D8B47D
:101B200094EF0DF096EF0DF08CEF0DF03D5012009C
:101B30000AEC0FF02450030B0009D8B4A2EF0DF00B
:101B4000A4EF0DF0B0EF0DF0C6EC10F00009D8B422
:101B5000ACEF0DF0AEEF0DF0B0EF0DF0100E226E09
:101B60002250020D010EF324F66E160EF420F76ECD
:101B7000F86A000EF82209006100D4F337F5090075
:101B80006100D4F338F502D8CFEF0DF00500FA6EFE
:101B90003750FD6E3850FE6EFF6AFA501200226E0A
:101BA0001200000EBE6E000EBF6E000EC06E3E0E26
:101BB000C66E300EC76EE30EC86EE20E0401106FE3
:101BC000300E086F370E006F000E096F000E016FA8
:101BD000000E116F000E026FF00E0A6F000E126FF2
:101BE000370E036FF00E0B6F13693F0E046FF00E8C
:101BF0000C6F14690E0E0201706F220E0F6F210E12
:101C0000106F100E726F100E016F0F0E716F1200B9
:101C10003D6E3D509AEC0CF00009D8B412EF0EF076
:101C200014EF0EF009EF0EF05A0E2B6E1F0E2C6EF5
:101C30003C0E2D6E050E2E6EA4EC10F03B0E266EA3
:101C4000050E276E000E296E010E286E43EC10F073
:101C5000000E2B6E000E2C6E000E2D6E000E2E6EE2
:101C600098EC10F057EC11F01AEC10F0E806D8B42C
:101C70003CEF0EF03EEF0EF034EF0EF0120067EC8A
:101C800011F0020E236E51EF0EF02DEC11F075EFF6
:101C90000EF08BEC11F075EF0EF01FEC11F075EFFC
:101CA0000EF00FC52FF510C530F502D861EF0EF01C
:101CB0000500FA6E0350FD6E0450FE6EFF6AFA5086
:101CC0001200316E326A3250000AD8B46AEF0EF058
:101CD0004DEF0EF03150020AD8B445EF0EF0010A74
:101CE000D8B449EF0EF04DEF0EF01200000E0201D5
:101CF000A56F000EA66F000EA76F000EA86F000E56
:101D0000A96F000EAA6FB80EAB6F800EAC6F000EFD
:101D1000AD6F070EAE6F000EAF6F000EB06F000E0E
:101D2000B16F000EB26F000EB36F000E266E000E84
:101D3000276E3EEC11F0000E266E000E276E39EC79
:101D400011F0000E266E000E276E43EC11F0000E0F
:101D5000256E1200FC0E2416020E236E2494B8EF9A
:101D60000EF089EC11F0DCEF0EF00F0EDCEF0EF050
:101D700011C52FF512C530F502D8C8EF0EF00500D9
:101D8000FA6E0550FD6E0650FE6EFF6AFA501200A4
:101D9000316E326A3250000AD8B4D1EF0EF0B5EF8E
:101DA0000EF03150020AD8B4B1EF0EF0010AD8B4E7
:101DB000B1EF0EF0B5EF0EF01200BAA2E2EF0EF0A6
:101DC000E4EF0EF0E6EF0EF009EF0FF0BAA0EBEF44
:101DD0000EF0EDEF0EF0EFEF0EF009EF0FF0020155
:101DE0009AA5F5EF0EF0F7EF0EF0F9EF0EF009EF10
:101DF0000FF09AAFFEEF0EF000EF0FF002EF0FF0D2
:101E000009EF0FF097A907EF0FF009EF0FF0DDEFE3
:101E10000EF01200F2EC10F00009D8B412EF0FF03F
:101E200014EF0FF018EF0FF086EC11F032EF0FF017
:101E3000DCEC10F00009D8B420EF0FF022EF0FF027
:101E400026EF0FF080EC11F032EF0FF0E7EC10F01E
:101E50000009D8B42EEF0FF030EF0FF032EF0FF093
:101E600083EC11F01200396E010E3A6E24B43BEF90
:101E70000FF03DEF0FF057EF0FF02484000E3A6E95
:101E8000205010EC11F03950D8B449EF0FF04BEF5F
:101E90000FF051EF0FF0040E226E05EC10F055EF2D
:101EA0000FF0030E226EFDEC10F070EC10F03A50C3
:101EB000120020EE02F02F50D9263050DA226100B5
:101EC00078F326F5610074F327F56100BCF4D9F4CA
:101ED0006100C0F4DAF4610078F328F5610074F36E
:101EE00029F543EC10F0000E2B6E000E2C6E000E48
:101EF0002D6E000E2E6EA4EC10F0020E12000201E8
:101F000094BF85EF0FF087EF0FF096EF0FF0000E04
:101F10009A6F000E9B6F000E976F000E8C6F000E75
:101F20008D6F270E9D6F510E866F948F1200040ED9
:101F30000201946F800E956F380E966F020E9E6FA1
:101F4000000E9A6F000E9B6F000E976F000E8C6F45
:101F5000000E8D6F270E9D6F12002FC526F530C520
:101F600027F5000E296E010E286E43EC10F0000ECE
:101F70002B6E000E2C6E000E2D6E000E2E6EA4EC3D
:101F800010F0040E12002FC526F530C527F5000EFF
:101F9000296E020E286E43EC10F0000E2B6E000E20
:101FA0002C6E000E2D6E000E2E6EA4EC10F0020EA4
:101FB00012002FC526F530C527F5000E296E010E3B
:101FC000286E43EC10F0000E2B6E000E2C6E000EEF
:101FD0002D6E000E2E6EA4EC10F0020E12002FC516
:101FE00026F530C527F5000E296E020E286E43EC4B
:101FF00010F0000E2B6E000E2C6E000E2D6E000EDB
:102000002E6EA4EC10F0040E12002450FC0B0209FA
:10201000246E20042110D8A410EF10F012EF10F05D
:1020200014EF10F000EC0CF0D8801D344DEC11F0E2
:10203000040E1200010E266E24B421EF10F023EFDF
:1020400010F02DEF10F024961D6867EC11F07EEC77
:1020500010F033EC11F023C526F5265012006EEC7B
:1020600011F06BEC11F00009D8B439EF10F03BEF30
:1020700010F041EF10F0000E10EC11F0000E4DECDE
:1020800011F0000E120024A848EF10F04AEF10F0F3
:1020900053EF10F026C51EF527C51FF528C520F5FE
:1020A00029C521F524981200000E0001636F000E6F
:1020B000646F000E656F000E666F000E676F000E96
:1020C000686F1200600E0001AD6F000EAF6F010E61
:1020D000B36F080EB16F000EB06F000EAC6F120040
:1020E00076EF10F0DDEC0EF098EC0DF024B47BEF01
:1020F00010F07DEF10F072EF10F01200AF94AF9679
:10210000AF90AF9202019B919B959B9F9B9D9B9350
:102110009793979597911200266EB7A292EF10F0C1
:1021200094EF10F08DEF10F0610098F4A3F212001C
:102130002BC526F52CC527F52DC528F52EC529F567
:10214000020EE1EC0CF012002BC526F52CC527F58C
:102150002DC528F52EC529F5000EE1EC0CF0120076
:1021600054EC10F097EC0FF0D1EC0DF062EC10F0A5
:1021700076EC0EF01200020199BBC1EF10F0C4EF33
:1021800010F0010EC5EF10F0000E1200020195BB19
:10219000CCEF10F0CFEF10F0010ED0EF10F0000EEA
:1021A0001200020199B1D7EF10F0DAEF10F0010E32
:1021B000DBEF10F0000E120002019AB5E2EF10F012
:1021C000E5EF10F0010EE6EF10F0000E1200020134
:1021D00097B9EDEF10F0F0EF10F0010EF1EF10F005
:1021E000000E120002019ABFF8EF10F0FBEF10F0A2
:1021F000010EFCEF10F0000E12002450FC0B02093F
:10220000246E1D501D244DEC11F0030E120001EE42
:1022100001F1250EEE6AE806FDE10001A3EF0BF0E7
:10222000266E610098F48CF2000E02018D6F120090
:1022300052EC11F02494020E236E0F0E120052EC99
:1022400011F02494000E236E0F0E120071EC11F0A9
:102250006EEC11F048EC11F01200205010EC11F06F
:1022600005EC10F012000201949F000E9A6F998500
:10227000120026C545F527C546F5120026C547F5C7
:1022800027C548F5120026C543F527C544F51200B9
:102290002494000E236E0F0E1200266E610098F437
:1022A0008BF212000201949F9985948F1200000E08
:1022B00033EC0FF0120071EC11F0090E120074EC07
:1022C00011F0040E120074EC11F0030E1200000E57
:1022D00002019A6F120002018C5112000201949BBC
:1022E00012000201958D12000201959D120002015B
:1022F0008A5112000201948D12000201949D120075
:1023000002019A95120002019799120002019A9F08
:102310001200010E1200020E1200050E1200010E34
:022320001200A9
:04FFFC0007EF11F00A
:020000040020DA
:10000000FF0FFF0FFF0FFF0FFF0FFF0FFF0FFF0F80
:10001000FF0FFF0FFF0FFF0FFF0FFF0FFF0FFF0F70
:020000040030CA
:0A0000008CFFF7FF9FFFFFFFFFFFDB
:00000001FF
