:040000005DEF00F0C0
:10000800B708B708B708B708B708B708B708B708F0
:10001800B708B708B708B708B708B708B708B708E0
:10002800B7082E002E002E00B708B708B708B70883
:10003800B708B708B708B708B708B708B708B708C0
:10004800B708B708B708B708B708B708B708B708B0
:10005800B708B708B7082E00B708B708B708B70831
:10006800B708B708B708B708B708B708B7082E0021
:10007800B708B708B708B7082E00B708B708B70811
:10008800B708B708B708B7082E00B7082E00B70892
:10009800B708B708B708B708B708B708B708B70860
:1000A800B7082E002E00B708B708B708B708B70872
:0600B800FF003AEF10F01A
:10150000004A22B41FB8212815C0176819241714DF
:1015100022D022CC2208207822802206227022F8B3
:1015200021781CA21BEA2100A5EC10F00009D8B418
:101530009CEF0AF09EEF0AF0D7EF0AF0ABEF0AF04B
:101540000AEC11F022EF0BF068EC11F022EF0BF037
:10155000000E22EF0BF013C53CF514C53DF502D883
:10156000BBEF0AF00500FA6E0750FD6E0850FE6EE4
:10157000FF6AFA5012003E6E3F6A3F50000AD8B42C
:10158000C4EF0AF0A8EF0AF03E50010AD8B4A8EF61
:101590000AF0030AD8B4A0EF0AF0010AD8B4A4EF05
:1015A0000AF0070AD8B4A8EF0AF0A8EF0AF09AECFC
:1015B00010F00009D8B4DFEF0AF0E1EF0AF021EFF4
:1015C0000BF02450030B0009D8B4E9EF0AF0EBEF5D
:1015D0000AF0F7EF0AF0010E3E6E2450030B3F6E47
:1015E0003E503F5E24503F18FC0B3F18246E6100B4
:1015F00078F4D9F461007CF4DAF4DF50426E1E4ACC
:101600001F2A2006D8A0210620502110D8A40BEFB5
:101610000BF00DEF0BF015EF0BF0B4EC0CF03E6E91
:101620003E50406E416A19EF0BF0000E416E030E02
:10163000406E40C543F542502AEC11F0435022EF72
:101640000BF0030E120018EC10F0D68ED68CC0945E
:101650000F0E486E6B0EF0EC0CF04D6E6B0E4D18CD
:10166000D8A435EF0BF037EF0BF03BEF0BF0C08851
:10167000C0964BEF0BF0C086C098090E4C6E1E0E44
:101680004B6EE40EE82EFED74B2EFCD74C2EFAD72D
:1016900000D028EF0BF0180E486E020E496E6B0E4C
:1016A0009AEC0DF0100E486E400E496E6B0E9AECDF
:1016B0000DF0110E486E4C0E496E6B0E9AEC0DF04B
:1016C000180E486E000E496E6B0E9AEC0DF0AA0EC5
:1016D000266E220E4E6E4EC548F56B0EF0EC0CF0E9
:1016E0004B6E050E4E24D96EDA6A050EDA226100C1
:1016F0002CF5DFF44E2A2D0E4E6481EF0BF083EFB4
:101700000BF06BEF0BF0D0A688EF0BF08AEF0BF02D
:101710008DEF0BF0C09669EF0BF0C08669EF0BF010
:101720005DEF00F02488B3EF0BF057EC11F0080EDA
:10173000DFEF0BF057EC11F0070EDFEF0BF0202876
:10174000E6EC10F0040EDFEF0BF0070E2218D8B411
:10175000ACEF0BF0AEEF0BF0B0EF0BF05AEC11F07A
:101760000F0EDFEF0BF00DC53CF50EC53DF502D8B1
:10177000C3EF0BF00500FA6E0150FD6E0250FE6ED5
:10178000FF6AFA5012003E6E3F6A3F50000AD8B41A
:10179000CCEF0BF0A5EF0BF03E50010AD8B4A5EF4B
:1017A0000BF0030AD8B49AEF0BF0010AD8B495EF06
:1017B0000BF0070AD8B49FEF0BF0A5EF0BF0120067
:1017C000B0EC10F00009D8A4E8EF0BF0EAEF0BF052
:1017D000EDEF0BF0040E2BEF0CF02450030B00097F
:1017E000D8B4F5EF0BF0F7EF0BF003EF0CF0010EB0
:1017F000406E2450030B416E4050415E245041180E
:10180000FC0B4118246E2006D8A021062050211080
:10181000D8B40DEF0CF00FEF0CF01CEF0CF054EC03
:1018200011F0610078F4D9F461007CF4DAF4DF6E31
:101830001E4A1F2AEAEF0BF092EC0BF0426E54ECBA
:1018400011F0610078F4D9F461007CF4DAF4DF6E11
:101850001E4A1F2A42501200336E010E346E24B607
:1018600034EF0CF036EF0CF071EF0CF033C51DF5D2
:1018700024942486FC0E24160F0E226E010E1C6E7C
:10188000F40E1B6E2488D80E016E220E026E000E1E
:101890000D6E000E0E6ED80E036E220E046E000E3C
:1018A0000F6E000E106ED80E056E220E066E000E24
:1018B000116E000E126ED80E076E220E086E000E0C
:1018C000136E000E146ED40E096E220E0A6E000EF8
:1018D000156E000E166E44EC11F054EC0FF0000E75
:1018E000346E34501200376E33503410D8B47BEF5E
:1018F0000CF07DEF0CF09BEF0CF03750020D010E59
:10190000F324D96E050EF420DA6E6100CCF4DEF417
:101910006100D0F4DDF43750020D0D0EF324D96EC2
:10192000050EF420DA6E6100D4F4DEF46100D8F420
:10193000DDF4B3EF0CF03750020D010EF324D96E35
:10194000050EF420DA6ED80EDE6E220EDD6E3750F4
:10195000020D0D0EF324D96E050EF420DA6E000E82
:10196000DE6E000EDD6E12002488C7EF0CF057EC1F
:1019700011F0070EEFEF0CF02028E6EC10F0030E4C
:10198000EFEF0CF05AEC11F00A0EEFEF0CF00DC572
:101990003CF50EC53DF502D8D7EF0CF00500FA6E08
:1019A0000150FD6E0250FE6EFF6AFA5012003E6E4C
:1019B0003F6A3F50000AD8B4E0EF0CF0C2EF0CF0E1
:1019C0003E50010AD8B4C2EF0CF0030AD8B4B7EF06
:1019D0000CF0060AD8B4BCEF0CF0C2EF0CF0120009
:1019E000496E000E4A6E49502CEC0CF00009D8B438
:1019F000FCEF0CF0FEEF0CF0F3EF0CF05C0E386E29
:101A00001F0E396E4A0E3A6E050E3B6E8EEC10F0CC
:101A1000480E336E050E346E000E366E010E356EB6
:101A200029EC10F0000E386E000E396E000E3A6E82
:101A3000000E3B6E82EC10F034EC11F0EFEC0FF086
:101A4000E806D8B426EF0DF028EF0DF01EEF0DF0EC
:101A50004A5012009CEC0EF02450030B0009D8B43D
:101A600034EF0DF036EF0DF042EF0DF0A5EC10F075
:101A70000009D8B43EEF0DF040EF0DF042EF0DF04D
:101A8000100E226E2250020D010EF324F66E150E7A
:101A9000F420F76EF86A000EF82209006100D4F312
:101AA00044F509006100D4F345F502D861EF0DF06B
:101AB0000500FA6E4450FD6E4550FE6EFF6AFA5006
:101AC0001200226E1200000EBE6E000EBF6E000EDF
:101AD000C06E3E0EC66E300EC76EE30EC86EE20ECE
:101AE0000401106F300E086F370E006F000E096F83
:101AF000000E016F000E116F000E026FF00E0A6FE4
:101B0000000E126F370E036FF00E0B6F13693F0E4E
:101B1000046FF00E0C6F14690E0E0201706F220E2E
:101B20000F6F210E106F100E726F100E016F0F0EDF
:101B3000716F12004A6E4A502CEC0CF00009D8B4B8
:101B4000A4EF0DF0A6EF0DF09BEF0DF0040E386E34
:101B50001F0E396E490E3A6E050E3B6E8EEC10F07C
:101B6000480E336E050E346E000E366E010E356E65
:101B700029EC10F0000E386E000E396E000E3A6E31
:101B8000000E3B6E82EC10F034EC11F0EFEC0FF035
:101B9000E806D8B4CEEF0DF0D0EF0DF0C6EF0DF0A3
:101BA000120044EC11F0020E236EE3EF0DF00AEC8C
:101BB00011F007EF0EF068EC11F007EF0EF0FCECFF
:101BC00010F007EF0EF00FC53CF510C53DF502D83B
:101BD000F3EF0DF00500FA6E0350FD6E0450FE6E3B
:101BE000FF6AFA5012003E6E3F6A3F50000AD8B4B6
:101BF000FCEF0DF0DFEF0DF03E50020AD8B4D7EF46
:101C00000DF0010AD8B4DBEF0DF0DFEF0DF012009C
:101C1000000E0201A56F000EA66F000EA76F000E4A
:101C2000A86F000EA96F000EAA6FB80EAB6F800EE2
:101C3000AC6F000EAD6F070EAE6F000EAF6F000EF3
:101C4000B06F000EB16F000EB26F000EB36F000EDA
:101C5000336E000E346E1BEC11F0000E336E000E6E
:101C6000346E16EC11F0000E336E000E346E20EC64
:101C700011F0000E256E1200FC0E2416020E236ECB
:101C800024944AEF0EF066EC11F06EEF0EF00F0E9A
:101C90006EEF0EF011C53CF512C53DF502D85AEFB6
:101CA0000EF00500FA6E0550FD6E0650FE6EFF6ADE
:101CB000FA5012003E6E3F6A3F50000AD8B463EFFC
:101CC0000EF047EF0EF03E50020AD8B443EF0EF08C
:101CD000010AD8B443EF0EF047EF0EF01200BAA29B
:101CE00074EF0EF076EF0EF078EF0EF09BEF0EF043
:101CF000BAA07DEF0EF07FEF0EF081EF0EF09BEFBC
:101D00000EF002019AA587EF0EF089EF0EF08BEF2F
:101D10000EF09BEF0EF09AAF90EF0EF092EF0EF0F8
:101D200094EF0EF09BEF0EF097A999EF0EF09BEF5A
:101D30000EF06FEF0EF01200D1EC10F00009D8B4E5
:101D4000A4EF0EF0A6EF0EF0AAEF0EF063EC11F088
:101D5000C4EF0EF0BBEC10F00009D8B4B2EF0EF0F7
:101D6000B4EF0EF0B8EF0EF05DEC11F0C4EF0EF032
:101D7000C6EC10F00009D8B4C0EF0EF0C2EF0EF0C0
:101D8000C4EF0EF060EC11F01200000E0001E86FDD
:101D9000260EF96F050EFA6F000EFB6F020EF16F43
:101DA000A30EF06F020EFD6F000EF86F0D0EF76FB1
:101DB000000EEF6F010EEE6F210EFF6F000EFE6F33
:101DC000B59AB598B59EB59CAA9AAA98AA9EAA9CBF
:101DD000C00EFC6F1200466E010E476E24B4F3EF86
:101DE0000EF0F5EF0EF00FEF0FF02484000E476EAB
:101DF0002050E6EC10F04650D8B401EF0FF003EF9E
:101E00000FF009EF0FF0040E226EDAEC0FF00DEF79
:101E10000FF0030E226EDCEC10F066EC10F0475071
:101E2000120020EE02F03C50D9263D50DA2261002B
:101E300078F333F5610074F334F56100F0F4D9F40C
:101E40006100F4F4DAF4610078F335F5610074F3BD
:101E500036F529EC10F0000E386E000E396E000ECB
:101E60003A6E000E3B6E8EEC10F0020E1200D68A17
:101E7000000ED6BE010E336ED69E550E0401596F6C
:101E8000AA0E596F5991000E5F6F000E5E6F080E1B
:101E90005D6F550E596FAA0E596F598133B002D03C
:101EA000D69E01D0D68E1200020194BF5AEF0FF0D9
:101EB0005CEF0FF06BEF0FF0000E9A6F000E9B6F50
:101EC000000E976F000E8C6F000E8D6F0F0E9D6FC2
:101ED000510E866F948F1200040E0201946F800ED3
:101EE000956F380E966F020E9E6F000E9A6F000E61
:101EF0009B6F000E976F000E8C6F000E8D6F0F0E94
:101F00009D6F12003CC533F53DC534F5000E366EAD
:101F1000010E356E29EC10F0000E386E000E396E91
:101F2000000E3A6E000E3B6E8EEC10F0040E1200A6
:101F30003CC533F53DC534F5000E366E020E356EE8
:101F400029EC10F0000E386E000E396E000E3A6E5D
:101F5000000E3B6E8EEC10F0020E12003CC533F505
:101F60003DC534F5000E366E010E356E29EC10F0CD
:101F7000000E386E000E396E000E3A6E000E3B6E8B
:101F80008EEC10F0020E12003CC533F53DC534F561
:101F9000000E366E020E356E29EC10F0000E386E13
:101FA000000E396E000E3A6E000E3B6E8EEC10F095
:101FB000040E12002450FC0B0209246E2004211090
:101FC000D8A4E5EF0FF0E7EF0FF0E9EF0FF092EC98
:101FD0000BF0D8801D342AEC11F0040E1200010E13
:101FE000336E24B4F6EF0FF0F8EF0FF002EF10F0BD
:101FF00024961D6844EC11F074EC10F010EC11F014
:1020000023C533F5335012004BEC11F048EC11F0BE
:102010000009D8B40EEF10F010EF10F016EF10F02A
:10202000000EE6EC10F0000E2AEC11F0000E12008B
:1020300037EC0FF04AEC10F06CEC0FF063EC0DF0A5
:1020400058EC10F0C5EC0EF008EC0EF0EEEC10F0D1
:10205000120024A82EEF10F030EF10F039EF10F03E
:1020600033C51EF534C51FF535C520F536C521F538
:102070002498120001EE01F1320EEE6AE806FDE14D
:102080000401080E5D6F000E5E6F000E5F6F0001B1
:1020900023EF0BF0000E0001636F000E646F000E63
:1020A000656F000E666F000E676F000E686F12009E
:1020B000600E0001AD6F000EAF6F010EB36F080E22
:1020C000B16F000EB06F000EAC6F12006CEF10F02D
:1020D0006FEC0EF02AEC0DF024B471EF10F073EFFA
:1020E00010F068EF10F01200AF94AF96AF90AF927F
:1020F00002019B919B959B9F9B9D9B93979397958B
:102100009791120038C533F539C534F53AC535F520
:102110003BC536F5020E73EC0CF0120038C533F5F2
:1021200039C534F53AC535F53BC536F5000E73ECC7
:102130000CF01200020199BBA0EF10F0A3EF10F019
:10214000010EA4EF10F0000E1200020195BBABEFE0
:1021500010F0AEEF10F0010EAFEF10F0000E120015
:10216000020199B1B6EF10F0B9EF10F0010EBAEF1D
:1021700010F0000E120002019AB5C1EF10F0C4EF8A
:1021800010F0010EC5EF10F0000E1200020197B919
:10219000CCEF10F0CFEF10F0010ED0EF10F0000EEA
:1021A000120002019ABFD7EF10F0DAEF10F0010E23
:1021B000DBEF10F0000E12002450FC0B0209246E1D
:1021C0001D501D242AEC11F0030E1200336E610025
:1021D000CCF48CF2000E02018D6F1200550E00013E
:1021E000B46FAA0EB46FB48112002FEC11F02494D6
:1021F000020E236E0F0E12002FEC11F02494000E2D
:10220000236E0F0E12004EEC11F04BEC11F025EC8A
:1022100011F012002050E6EC10F0DAEC0FF0120092
:102220000201949F000E9A6F9985120033C551F5F3
:1022300034C552F5120033C553F534C554F51200B8
:1022400033C54FF534C550F512002494000E236EAB
:102250000F0E1200336E6100CCF48BF212000201FB
:10226000949F9985948F1200000EEBEC0EF01200F3
:102270004EEC11F0090E120051EC11F0040E120098
:1022800051EC11F0030E1200000E02019A6F1200C1
:1022900002018C5112000201949B12000201958DE3
:1022A00012000201959D120002018A5112000201E2
:1022B000948D12000201949D120002019A95120061
:1022C00002019799120002019A9F1200010E12005A
:0E22D000020E1200050E1200010E1200110087
:020000040020DA
:10000000FF0FFF0FFF0FFF0FFF0FFF0FFF0FFF0F80
:10001000FF0FFF0FFF0FFF0FFF0FFF0FFF0FFF0F70
:10002000FF0FFF0FFF0FFF0FFF0FFF0FFF0FFF0F60
:10003000FF0FFF0FFF0FFF0FFF0FFF0FFF0FFF0F50
:020000040030CA
:0A0000008CFFFFFF9FFFFFFFFFFFD3
:00000001FF
