:040000005DEF00F0C0
:100008005A095A095A095A095A095A095A095A09D0
:100018005A095A095A095A095A095A095A095A09C0
:100028005A092E002E002E005A095A095A095A094F
:100038005A095A095A095A095A095A095A095A09A0
:100048005A095A095A095A095A095A095A095A0990
:100058005A095A095A092E005A095A095A095A09B5
:100068005A095A095A095A095A095A095A092E00A5
:100078005A095A095A095A092E005A095A095A0995
:100088005A095A095A095A092E005A092E005A09BA
:100098005A095A095A095A095A095A095A095A0940
:1000A8005A092E002E005A095A095A095A095A099A
:0600B800FF008DEF10F0C7
:1015000000D4244E2224249E175819001BBC188096
:10151000245A255625A22202250A257224FA24647B
:1015200024141E3E1D56240076EC10F0D68ED68C68
:10153000C084BF8ABF8CC08E000E486E0F0E3C6EFA
:101540006B0EBCEC0DF0446E6B0E4418D8A4ABEFE0
:101550000AF0ADEF0AF0AFEF0AF0BDEF0AF0090EA6
:10156000406E1E0E3F6EE40EE82EFED73F2EFCD7D7
:10157000402EFAD700D09EEF0AF0180E3C6E020EF5
:101580003D6E6B0E68EC0EF0100E3C6E400E3D6E24
:101590006B0E68EC0EF0110E3C6E4C0E3D6E6B0E39
:1015A00068EC0EF0180E3C6E000E3D6E6B0E68EC93
:1015B0000EF0240E0501606F610E426E050E436E43
:1015C0006D0E466E050E476E0A0E7E6F000E7F6F23
:1015D0004804D8A4EEEF0AF0F0EF0AF01AEF0BF08F
:1015E000CEBAF5EF0AF0F7EF0AF01AEF0BF0000EA3
:1015F000486E050E406E0F0E3F6EF10EE82EFED7C0
:101600003F2EFCD7402EFAD700F0CEAA0AEF0BF0FF
:101610000CEF0BF005EF0BF0050E406E0F0E3F6E5A
:10162000F10EE82EFED73F2EFCD7402EFAD700F061
:1016300040EF0BF04850D8A420EF0BF022EF0BF056
:1016400040EF0BF0CEBA27EF0BF029EF0BF040EF95
:101650000BF0010E486E050E406E0F0E3F6EF10E40
:10166000E82EFED73F2EFCD7402EFAD700F0CEAAA8
:101670003CEF0BF03EEF0BF037EF0BF00CEF0BF005
:10168000220E496E49C53CF56B0EBCEC0DF03F6E69
:1016900049504224406E000E4320416EDE0E40242D
:1016A000D96EFF0E4120DA6E6100FCF4DFF4492AA6
:1016B0002D0E49645EEF0BF060EF0BF042EF0BF084
:1016C000000E456E000E4B6E800E4B24D96EDA6A0A
:1016D000050EDA22AA0EDE18D8A471EF0BF073EF14
:1016E0000BF07FEF0BF0800E4B24D96EDA6A050EFB
:1016F000DA22000EDF6E010E456E88EF0BF04B2AEA
:101700000C0E4B6486EF0BF088EF0BF064EF0BF0E0
:10171000000E4A6E0C0E4B18D8A491EF0BF093EF0D
:101720000BF097EF0BF0000E4B6E98EF0BF04B2A7F
:101730004550D8B49EEF0BF0A0EF0BF0A8EF0BF0E4
:101740004850D8A4A6EF0BF0A8EF0BF0B3EF0BF0C6
:101750004A504624D96E000E4720DA6E240EDF6E02
:10176000BF98C2EF0BF0800E4B24D96EDA6A050EDB
:10177000DA224A504624E16E000E4720E26EDFC4B2
:10178000E7F4BF884A2A0B0E4A64C9EF0BF0CBEF8F
:101790000BF08AEF0BF0E8EF0AF05DEF00F0D1EC10
:1017A00011F00009D8B4D7EF0BF0D9EF0BF012EF1E
:1017B0000CF0E6EF0BF040EC12F05DEF0CF0ADEC4E
:1017C00012F05DEF0CF0000E5DEF0CF013C530F57C
:1017D00014C531F502D8F6EF0BF00500FA6E07508C
:1017E000FD6E0850FE6EFF6AFA501200326E336AC8
:1017F0003350000AD8B4FFEF0BF0E3EF0BF0325098
:10180000010AD8B4E3EF0BF0030AD8B4DBEF0BF016
:10181000010AD8B4DFEF0BF0070AD8B4E3EF0BF0FE
:10182000E3EF0BF0C6EC11F00009D8B41AEF0CF09E
:101830001CEF0CF05CEF0CF02450030B0009D8B443
:1018400024EF0CF026EF0CF032EF0CF0010E326EAC
:101850002450030B336E3250335E24503318FC0B8C
:101860003318246E610078F4D9F461007CF4DAF462
:10187000DF50366E1E4A1F2A2006D8A021062050AF
:101880002110D8A446EF0CF048EF0CF050EF0CF00C
:1018900080EC0DF0326E3250346E356A54EF0CF03D
:1018A000000E356E030E346E34C537F536506FECCE
:1018B00012F037505DEF0CF0030E120024887FEF1A
:1018C0000CF09CEC12F0080EABEF0CF09CEC12F05C
:1018D000070EABEF0CF020281CEC12F0040EABEF5F
:1018E0000CF0070E2218D8B478EF0CF07AEF0CF059
:1018F0007CEF0CF09FEC12F00F0EABEF0CF00DC56F
:1019000030F50EC531F502D88FEF0CF00500FA6EF8
:101910000150FD6E0250FE6EFF6AFA501200326EE8
:10192000336A3350000AD8B498EF0CF071EF0CF022
:101930003250010AD8B471EF0CF0030AD8B466EF44
:101940000CF0010AD8B461EF0CF0070AD8B46BEFC1
:101950000CF071EF0CF01200DCEC11F00009D8A4CF
:10196000B4EF0CF0B6EF0CF0B9EF0CF0040EF7EF9B
:101970000CF02450030B0009D8B4C1EF0CF0C3EFF6
:101980000CF0CFEF0CF0010E346E2450030B356ECB
:101990003450355E24503518FC0B3518246E200663
:1019A000D8A0210620502110D8B4D9EF0CF0DBEFDD
:1019B0000CF0E8EF0CF099EC12F0610078F4D9F437
:1019C00061007CF4DAF4DF6E1E4A1F2AB6EF0CF0D9
:1019D0005EEC0CF0366E99EC12F0610078F4D9F4FC
:1019E00061007CF4DAF4DF6E1E4A1F2A36501200C2
:1019F000276E010E286E24B600EF0DF002EF0DF0F9
:101A00003DEF0DF027C51DF524942486FC0E241609
:101A10000F0E226E010E1C6EF40E1B6E2488620ED9
:101A2000016E250E026E000E0D6E000E0E6E620E21
:101A3000036E250E046E000E0F6E000E106E620E09
:101A4000056E250E066E000E116E000E126E620EF1
:101A5000076E250E086E000E136E000E146E5E0EDD
:101A6000096E250E0A6E000E156E000E166E89ECBC
:101A700012F0B9EC10F0000E286E285012002B6EF8
:101A800027502810D8B447EF0DF049EF0DF067EF5D
:101A90000DF02B50020D010EF324D96E050EF4202B
:101AA000DA6E61009CF4DEF46100A0F4DDF42B50EA
:101AB000020D0D0EF324D96E050EF420DA6E6100CE
:101AC000A4F4DEF46100A8F4DDF47FEF0DF02B50F8
:101AD000020D010EF324D96E050EF420DA6E620EAB
:101AE000DE6E250EDD6E2B50020D0D0EF324D96E29
:101AF000050EF420DA6E000EDE6E000EDD6E1200B2
:101B0000248893EF0DF09CEC12F0070EBBEF0DF064
:101B100020281CEC12F0030EBBEF0DF09FEC12F02E
:101B20000A0EBBEF0DF00DC530F50EC531F502D82C
:101B3000A3EF0DF00500FA6E0150FD6E0250FE6E2F
:101B4000FF6AFA501200326E336A3350000AD8B47A
:101B5000ACEF0DF08EEF0DF03250010AD8B48EEFDD
:101B60000DF0030AD8B483EF0DF0060AD8B488EF5D
:101B70000DF08EEF0DF012003D6E000E3E6E3D50EA
:101B8000F8EC0CF00009D8B4C8EF0DF0CAEF0DF076
:101B9000BFEF0DF0F60E2C6E210E2D6E3E0E2E6E4A
:101BA000050E2F6EBAEC11F03C0E276E050E286E56
:101BB000000E2A6E010E296E65EC11F0000E2C6EDF
:101BC000000E2D6E000E2E6E000E2F6EAEEC11F07C
:101BD00079EC12F03CEC11F0E806D8B4F2EF0DF01D
:101BE000F4EF0DF0EAEF0DF03E501200000EBE6E65
:101BF000000EBF6E000EC06E2B0EC66E800EC76E3E
:101C0000230EC86E220E0401106F000E086F170E0F
:101C1000006F000E096F000E016F000E116F000EB5
:101C2000026F000E0A6F480E126F370E036FF00E30
:101C30000B6F13693F0E046FF00E0C6F1469130ED7
:101C40000201706F130E056F220E146F190E036FD1
:101C5000210E176F100E726F160E716F120098EC36
:101C60000FF02450030B0009D8B439EF0EF03BEF0E
:101C70000EF047EF0EF0D1EC11F00009D8B443EFAD
:101C80000EF045EF0EF047EF0EF0100E226E2250D0
:101C9000020D010EF324F66E150EF420F76EF86AAD
:101CA000000EF82209006100D4F338F50900610044
:101CB000D4F339F502D866EF0EF00500FA6E38500D
:101CC000FD6E3950FE6EFF6AFA501200226E12004D
:101CD0003E6E3E50F8EC0CF00009D8B472EF0EF0F6
:101CE00074EF0EF069EF0EF09E0E2C6E210E2D6E2D
:101CF0003D0E2E6E050E2F6EBAEC11F03C0E276EC7
:101D0000050E286E000E2A6E010E296E65EC11F08C
:101D1000000E2C6E000E2D6E000E2E6E000E2F6E1D
:101D2000AEEC11F079EC12F03CEC11F0E806D8B40E
:101D30009CEF0EF09EEF0EF094EF0EF0120089EC87
:101D400012F0020E236EB1EF0EF040EC12F0D5EF60
:101D50000EF0ADEC12F0D5EF0EF032EC12F0D5EF44
:101D60000EF00FC530F510C531F502D8C1EF0EF0F9
:101D70000500FA6E0350FD6E0450FE6EFF6AFA50C5
:101D80001200326E336A3350000AD8B4CAEF0EF034
:101D9000ADEF0EF03250020AD8B4A5EF0EF0010AF2
:101DA000D8B4A9EF0EF0ADEF0EF01200000E020154
:101DB000A56F000EA66F000EA76F000EA86F000E95
:101DC000A96F000EAA6F980EAB6F800EAC6F000E5D
:101DD000AD6F070EAE6F000EAF6F000EB06F000E4E
:101DE000B16F000EB26F000EB36F000E276E000EC3
:101DF000286E60EC12F0000E276E000E286E5BEC71
:101E000012F0000E276E000E286E65EC12F0000E28
:101E1000266E1200FC0E2416020E236E249418EF78
:101E20000FF0ABEC12F03CEF0FF00F0E3CEF0FF0A9
:101E300011C530F512C531F502D828EF0FF00500B5
:101E4000FA6E0550FD6E0650FE6EFF6AFA501200E3
:101E5000326E336A3350000AD8B431EF0FF015EF09
:101E60000FF03250020AD8B411EF0FF0010AD8B4C3
:101E700011EF0FF015EF0FF01200000E0201B86F16
:101E8000000EBA6F000EBC6FA00EBE6F800EBF6F4B
:101E9000000EC06F070EC16F000EC26F000EC36F41
:101EA000000EC46F000EC56F000EC66F000E276EC9
:101EB000000E286E51EC12F0000E276E000E286EF8
:101EC0004CEC12F0000E276E000E286E56EC12F04D
:101ED000000E256E1200BAA270EF0FF072EF0FF035
:101EE00074EF0FF097EF0FF0BAA079EF0FF07BEFE0
:101EF0000FF07DEF0FF097EF0FF002019AA583EF3F
:101F00000FF085EF0FF087EF0FF097EF0FF09AAF1C
:101F10008CEF0FF08EEF0FF090EF0FF097EF0FF0C8
:101F200097A995EF0FF097EF0FF06BEF0FF01200FE
:101F3000FDEC11F00009D8B4A0EF0FF0A2EF0FF004
:101F4000A6EF0FF0A8EC12F0C0EF0FF0E7EC11F0E5
:101F50000009D8B4AEEF0FF0B0EF0FF0B4EF0FF010
:101F6000A2EC12F0C0EF0FF0F2EC11F00009D8B4BF
:101F7000BCEF0FF0BEEF0FF0C0EF0FF0A5EC12F0CA
:101F80001200010E0001E86F600EF96F050EFA6F86
:101F9000000EFB6F020EF16FB60EF06F020EFD6FBA
:101FA000000EF86F200EF76F000EEF6F010EEE6F50
:101FB000410EFF6F000EFE6FB99AB998B99EB99C99
:101FC000AE9AAE98AE9EAE9CC00EFC6F1200000E94
:101FD0000001E86FA10EF96F020EFA6F000EFB6FA1
:101FE000050EF16F800EF06F400EFD6F000EF86F62
:101FF000010EF76F000EEF6F0D0EEE6F200EFF6FEC
:10200000000EFE6FB59AB598B59EB59CAA9AAA988F
:10201000AA9EAA9CC00EFC6F12003A6E010E3B6E87
:1020200024B415EF10F017EF10F031EF10F0248406
:10203000000E3B6E20501CEC12F03A50D8B423EF47
:1020400010F025EF10F02BEF10F0040E226E27ECAD
:1020500011F02FEF10F0030E226E12EC12F092EC42
:1020600011F03B50120020EE02F03050D9263150D2
:10207000DA22610078F327F5610074F328F5610036
:10208000C0F4D9F46100C4F4DAF4610078F329F5FE
:10209000610074F32AF565EC11F0000E2C6E000E51
:1020A0002D6E000E2E6E000E2F6EBAEC11F0020E89
:1020B0001200D68A000ED6BE010E276ED69E550E91
:1020C0000401596FAA0E596F5991000E5F6F000EEF
:1020D0005E6F080E5D6F550E596FAA0E596F5981CC
:1020E00027B002D0D69E01D0D68E120059EC10F047
:1020F00076EC11F0A3EC10F0F6EC0DF084EC11F09E
:1021000008EC12F0C1EC0FF0E7EC0FF03DEC0FF033
:10211000D6EC0EF024EC12F0120001EE60F12D0E60
:10212000EE6AE806FDE101EE01F1260EEE6AE80630
:10213000FDE10401080E5D6F000E5E6F000E5F6F23
:10214000000194EF0AF0040E0201946F800E956F67
:10215000380E966F020E9E6F000E9A6F000E9B6FE8
:10216000000E976F000E8C6F000E8D6F0F0E9D6F1F
:102170001200020194BFBFEF10F0C1EF10F0CEEFDC
:1021800010F0000E9A6F000E9B6F000E976F000EFE
:102190008C6F000E8D6F0F0E9D6F948F120030C5E7
:1021A00027F531C528F5000E2A6E010E296E65EC63
:1021B00011F0000E2C6E000E2D6E000E2E6E000E15
:1021C0002F6EBAEC11F0040E120030C527F531C5A0
:1021D00028F5000E2A6E020E296E65EC11F0000E35
:1021E0002C6E000E2D6E000E2E6E000E2F6EBAECB1
:1021F00011F0020E120030C527F531C528F5000E8A
:102200002A6E010E296E65EC11F0000E2C6E000E88
:102210002D6E000E2E6E000E2F6EBAEC11F0020E17
:10222000120030C527F531C528F5000E2A6E020EC2
:10223000296E65EC11F0000E2C6E000E2D6E000E56
:102240002E6E000E2F6EBAEC11F0040E1200245008
:10225000FC0B0209246E20042110D8A432EF11F0E7
:1022600034EF11F036EF11F05EEC0CF0D8801D3435
:102270006FEC12F0040E1200010E276E24B443EF2F
:1022800011F045EF11F04FEF11F024961D6889EC25
:1022900012F0A0EC11F046EC12F023C527F5275000
:1022A000120090EC12F08DEC12F00009D8B45BEF44
:1022B00011F05DEF11F063EF11F0000E1CEC12F065
:1022C000000E6FEC12F0000E120024A86AEF11F05D
:1022D0006CEF11F075EF11F027C51EF528C51FF53D
:1022E00029C520F52AC521F524981200000E000109
:1022F000636F000E646F000E656F000E666F000E58
:10230000676F000E686F1200600E0001AD6F000E67
:10231000AF6F010EB36F080EB16F000EB06F000EFD
:10232000AC6F120098EF11F06BEC0FF02FEC0EF089
:1023300024B49DEF11F09FEF11F094EF11F0120013
:10234000AF94AF96AF90AF9202019B919B959B9FEC
:102350009B9D9B9397939795979112002CC527F57A
:102360002DC528F52EC529F52FC52AF5020E3FECFF
:102370000DF012002CC527F52DC528F52EC529F521
:102380002FC52AF5000E3FEC0DF01200020199BB9B
:10239000CCEF11F0CFEF11F0010ED0EF11F0000EE5
:1023A0001200020195BBD7EF11F0DAEF11F0010E28
:1023B000DBEF11F0000E1200020199B1E2EF11F013
:1023C000E5EF11F0010EE6EF11F0000E1200020130
:1023D0009AB5EDEF11F0F0EF11F0010EF1EF11F001
:1023E000000E1200020197B9F8EF11F0FBEF11F0A7
:1023F000010EFCEF11F0000E120002019ABF03EF74
:1024000012F006EF12F0010E07EF12F0000E1200AC
:10241000820E0001706F000E716F000E726F000E61
:10242000736F12002450FC0B0209246E1D501D24F2
:102430006FEC12F0030E1200276E61009CF48CF218
:10244000000E02018D6F1200550E0001B46FAA0E2E
:10245000B46FB481120074EC12F02494020E236E57
:102460000F0E120074EC12F02494000E236E0F0E67
:10247000120093EC12F090EC12F06AEC12F01200E1
:1024800020501CEC12F027EC11F012000201949F76
:10249000000E9A6F9985120027C54EF528C54FF595
:1024A000120027C550F528C551F5120027C54CF577
:1024B00028C54DF5120027C554F528C555F512005D
:1024C00027C556F528C557F5120027C552F528C56A
:1024D00053F512002494000E236E0F0E1200276E87
:1024E00061009CF48BF212000201949F9985948FF5
:1024F0001200000E0DEC10F0120093EC12F0090E19
:10250000120096EC12F0040E120096EC12F0030E7C
:102510001200000E02019A6F120002018C5112008B
:102520000201949B12000201958D12000201959DFB
:10253000120002018A5112000201948D1200020160
:10254000949D120002019A951200020197991200BF
:1025500002019A9F1200010E1200020E1200050ED7
:062560001200010E120042
:02256800110060
:020000040020DA
:10000000FF0FFF0FFF0FFF0FFF0FFF0FFF0FFF0F80
:10001000FF0FFF0FFF0FFF0FFF0FFF0FFF0FFF0F70
:10002000FF0FFF0FFF0FFF0FFF0FFF0FFF0FFF0F60
:10003000FF0FFF0FFF0FFF0FFF0FFF0FFF0FFF0F50
:020000040030CA
:0A0000008CFFFFFF9FFFFFFFFFFFD3
:00000001FF
