:04000000FEEF7FF0A0
:10FEDA000001A6EF7FF0B7A075EF7FF077EF7FF014
:10FEEA0070EF7FF00201A151120000017083000E31
:10FEFA00726F000E736FC680C68204010081008390
:10FF0A00190E0201036F0001708F1200B80E020170
:10FF1A00AB6F800EAC6F000EAD6F0F0EAE6F000EA2
:10FF2A00AF6F000EB06F000EB16F000EB26F000E11
:10FF3A00B36F7251C70B1009726FF80E7217D69E03
:10FF4A001200C896C898C096C0987AEC7FF08BECDD
:10FF5A007FF070EC7FF0470AD8A4B6EF7FF0B8EFD5
:10FF6A007FF0BBEF7FF0C088BCEF7FF0C086000E49
:10FF7A00016E000E026E000E036E000E046E00F09B
:10FF8A00010E0126000E02220322042204500DE172
:10FF9A00A00E015C860E0258010E0358D8A0D8EFB5
:10FFAA007FF0DAEF7FF0C4EF7FF0C096C098000EC2
:10FFBA00056E000E066E000E076E000E086E00F04B
:10FFCA00010E0526000E06220722082208500DE11E
:10FFDA00A00E055C860E0658010E0758D8A0F8EF49
:10FFEA007FF0FAEF7FF0E4EF7FF0AEEF7FF0FEEF05
:06FFFA007FF06DEF7FF0C7
:020000040020DA
:10000000FF0FFF0FFF0FFF0FFF0FFF0FFF0FFF0F80
:10001000FF0FFF0FFF0FFF0FFF0FFF0FFF0FFF0F70
:020000040030CA
:0A0000008CFFFFFF9FFFFFFFFFFFD3
:00000001FF
