:04000000FEEF7FF0A0
:10FF180000018FEF7FF0C798C89EC08EC79ABF8A2E
:10FF28000401089FC78ECFAE9CEF7FF09EEF7FF055
:10FF380097EF7FF0BF88000E016E000E026E000E74
:10FF4800036E000E046E045003100BE1500E015CAA
:10FF5800C30E0258D8A0B3EF7FF0B5EF7FF0B7EF2C
:10FF68007FF0CCEF7FF000F0010E0126000E022298
:10FF780003220422045003100BE1500E015CC30E4F
:10FF88000258D8A0CAEF7FF0CCEF7FF0B7EF7FF030
:10FF9800BF98000E056E000E066E000E076E000E6E
:10FFA800086E085007100BE1500E055CC30E06588A
:10FFB800D8A0E1EF7FF0E3EF7FF0E5EF7FF097EF78
:10FFC8007FF000F0010E0526000E06220722082207
:10FFD800085007100BE1500E055CC30E0658D8A058
:10FFE800F8EF7FF0FAEF7FF0E5EF7FF097EF7FF023
:08FFF800FEEF7FF08CEF7FF0BB
:020000040020DA
:10000000FF0FFF0FFF0FFF0FFF0FFF0FFF0FFF0F80
:10001000FF0FFF0FFF0FFF0FFF0FFF0FFF0FFF0F70
:10002000FF0FFF0FFF0FFF0FFF0FFF0FFF0FFF0F60
:10003000FF0FFF0FFF0FFF0FFF0FFF0FFF0FFF0F50
:020000040030CA
:0A0000008CFFFFFF9FFFFFFFFFFFD3
:00000001FF
