:040000000DEF00F010
:0400080049EF01F0CB
:10001800FF004DEF02F0D4EC02F0D68ED6EC01F0E2
:10002800C08EBF8A000E1B6E000E1C6E000E1D6E69
:10003800000E1E6E1E500DE1200E1B5CA10E1C58FA
:10004800070E1D58D8A02BEF00F02DEF00F02FEF72
:1000580000F045EF00F000F0010E1B26000E1C22F8
:100068001D221E221E500DE1200E1B5CA10E1C58E5
:10007800070E1D58D8A043EF00F045EF00F02FEF12
:1000880000F0CFAE4AEF00F04CEF00F04EEF00F07A
:1000980045EF00F0C09E000E1F6E000E206E000E91
:1000A800216E000E226E225021100BE1500E1F5CB3
:1000B800C30E2058D8A063EF00F065EF00F067EF9B
:1000C80000F07CEF00F000F0010E1F26000E202249
:1000D80021222222225021100BE1500E1F5CC30E58
:1000E8002058D8A07AEF00F07CEF00F067EF00F01E
:1000F800C08E000E236E000E246E000E256E000EBC
:10010800266E265025100BE1500E235CC30E245892
:10011800D8A091EF00F093EF00F095EF00F045EFD5
:1001280000F000F0010E2326000E242225222622AC
:10013800265025100BE1500E235CC30E2458D8A07E
:10014800A8EF00F0AAEF00F095EF00F045EF00F0FF
:100158000DEF00F0ECEC02F00009D8B4B6EF00F0B7
:10016800B8EF00F0C7EF00F072EC03F084EC03F096
:10017800FF0E47EC03F07EEC03F0000E106E000E4D
:100188000F6E48EF01F072EC03F00DEC03F000097C
:10019800D8B4D1EF00F0D3EF00F0E5EF00F002ECB7
:1001A80003F00009D8B4DBEF00F0DDEF00F0E1EF79
:1001B80000F0010E106E29EF01F0020E106E29EF0B
:1001C80001F002EC03F00009D8B4EDEF00F0EFEF16
:1001D80000F0F3EF00F0030E106E29EF01F0040EAB
:1001E800106E29EF01F093EC02F084EC03F0E1ECDF
:1001F80002F00009D8B403EF01F005EF01F046EF73
:1002080001F065EC02F046EF01F093EC02F084ECAB
:1002180003F046EF01F0E1EC02F00009D8B417EF63
:1002280001F019EF01F046EF01F005EF01F0F7ECEE
:1002380002F00009D8B423EF01F025EF01F046EFF2
:1002480001F07CEC02F046EF01F01050156E166AD2
:100258001650000AD8B433EF01F046EF01F01550FC
:10026800010AD8B4F7EF00F0030AD8B409EF01F097
:10027800010AD8B40FEF01F0070AD8B41BEF01F058
:1002880046EF01F07EEC03F012006100E8F317F589
:100298006100ECF318F5AFA654EF01F056EF01F04A
:1002A8006CEF01F0BAA65BEF01F05DEF01F06CEFC7
:1002B80001F002D86AEF01F00500FA6E0B50FD6EEE
:1002C8000C50FE6EF850FF6EFA5012009CEF01F0D1
:1002D800AFA071EF01F073EF01F07CEF01F0BAA06D
:1002E80078EF01F07AEF01F07CEF01F05DEF01F0BB
:1002F800AFA481EF01F083EF01F08CEF01F0BAA415
:1003080088EF01F08AEF01F08CEF01F05DEF01F06A
:10031800AFA291EF01F093EF01F09CEF01F0BAA2C8
:1003280098EF01F09AEF01F09CEF01F05DEF01F01A
:10033800610060F4FBF461005CF4FAF41100000E53
:10034800BE6E000EBF6E000EC06E3F0EC66EC00EB3
:10035800C76E370EC86EB70E0401106F700E086FA7
:10036800370E006F000E096F000E016F000E116F3F
:10037800000E026F000E0A6F4C0E126F370E036FDD
:10038800F00E0B6F13693F0E046FF00E0C6F1469BB
:10039800160E0201706F210E146F220E176F130EC6
:1003A800716F120018EC03F0640E35EC03F07F0E49
:1003B8002CEC03F05C0E196E010E1A6E5EEC03F065
:1003C800000E196E000E1A6E63EC03F0440E196EDF
:1003D800060E1A6E4FEC03F0660E196E040E1A6EB6
:1003E80059EC03F0EC0E196E060E1A6E68EC03F069
:1003F800000E196E000E1A6E54EC03F03EEC03F07A
:100408001200000E0301D96F000EDA6F000EDB6FC9
:10041800000EDC6F000EDF6F000EE06F000EE56F60
:10042800000EE76F000EEC6F000EEE6F100EEF6F10
:10043800000EF06F000EF16F000EF26F000EF46FF9
:10044800100EF56F000EF66F000EF76F000EF86FC6
:10045800000EF96F1F0EFA6FC40EF36F120081ECD5
:1004680003F0126E0F50D8A43CEF02F03EEF02F0FA
:1004780042EF02F012C50EF54BEF02F0600E0E24AB
:10048800D96EDA6A050EDA22610048F4DFF40F2A21
:10049800120001EE60F1800EEE6AE806FDE101EE61
:1004A80001F1130EEE6AE806FDE10401080E5D6F26
:1004B800000E5E6F000E5F6F000EF86E00010FEF0A
:1004C80000F007500810D8B46CEF02F06EEF02F09D
:1004D8007BEF02F002D87BEF02F00500FA6E0750BE
:1004E800FD6E0850FE6EF850FF6EFA5012001200B2
:1004F80009500A10D8B483EF02F085EF02F092EFAA
:1005080002F002D892EF02F00500FA6E0950FD6E73
:100518000A50FE6EF850FF6EFA5012001200055095
:100528000610D8B49AEF02F09CEF02F0A9EF02F09F
:1005380002D8A9EF02F00500FA6E0550FD6E0650CC
:10054800FE6EF850FF6EFA5012001200000E000105
:10055800636F000E646F000E656F000E666F000E0D
:10056800676F000E686F1200600E0001AD6F000E1D
:10057800AF6F010EB36F080EB16F000EB06F000EB3
:10058800AC6F1200010E0201946F000E956F000E01
:10059800966F000E8C6F000E8D6F000E9D6F12000F
:1005A80087EC03F0AAEC02F0C6EC02F0A3EC01F031
:1005B800B8EC02F005EC02F01200020199BBE7EF7B
:1005C80002F0EAEF02F0010EEBEF02F0000E12006B
:1005D80002019AB5F2EF02F0F5EF02F0010EF6EF24
:1005E80002F0000E1200020199B1FDEF02F000EFD7
:1005F80003F0010E01EF03F0000E1200020198B99A
:1006080008EF03F00BEF03F0010E0CEF03F0000E00
:100618001200020198A713EF03F016EF03F0010E82
:1006280017EF03F0000E1200020194BF1EEF03F053
:1006380020EF03F021EF03F0948F1200600E0E24D8
:10064800D96EDA6A050EDA22DF506DEC03F012007B
:10065800196E195019240201916F19501924936FBA
:100668001200196E195019240201906F195019249B
:10067800926F1200AF84AF86AF80AF8202019B8574
:100688009B819B871200146E610050F48CF2000E5F
:1006980002018D6F120019C507F51AC508F5120079
:1006A80019C501F51AC502F5120019C509F51AC5CB
:1006B8000AF5120019C50BF51AC50CF5120019C573
:1006C80003F51AC504F5120019C505F51AC506F58E
:1006D8001200146E610050F48BF21200000E020139
:1006E8009A6F12007AEC03F0116E12000201D89092
:1006F8008E31120002019499120002018A511200EF
:0A070800020199851200D69A120032
:020000040020DA
:10000000FF0FFF0FFF0FFF0FFF0FFF0FFF0FFF0F80
:10001000FF0FFF0FFF0FFF0FFF0FFF0FFF0FFF0F70
:10002000FF0FFF0FFF0FFF0FFF0FFF0FFF0FFF0F60
:10003000FF0FFF0FFF0FFF0FFF0FFF0FFF0FFF0F50
:020000040030CA
:0A0000008CFFF7FF9FFFFFFFFFFFDB
:00000001FF
