:04000000FEEF7FF0A0
:10FDFA00000100EF7FF0C798C89EC08EC79ABF8ADD
:10FE0A000401089FC78E000E016E000E026E000EDE
:10FE1A00036E000E046E04500DE1200E015CA10E6B
:10FE2A000258070E0358D8A01DEF7FF01FEF7FF08E
:10FE3A0021EF7FF037EF7FF000F0010E0126000E70
:10FE4A0002220322042204500DE1200E015CA10EBD
:10FE5A000258070E0358D8A035EF7FF037EF7FF02E
:10FE6A0021EF7FF0CFAE3CEF7FF03EEF7FF09CEFCB
:10FE7A007FF0BF88000E056E000E066E000E076E3C
:10FE8A00000E086E085007100BE1500E055CC30EF9
:10FE9A000658D8A053EF7FF055EF7FF057EF7FF069
:10FEAA006CEF7FF000F0010E0526000E06220722F5
:10FEBA000822085007100BE1500E055CC30E0658C5
:10FECA00D8A06AEF7FF06CEF7FF057EF7FF0BF9812
:10FEDA00000E096E000E0A6E000E0B6E000E0C6EFE
:10FEEA000C500B100BE1500E095CC30E0A58D8A037
:10FEFA0081EF7FF083EF7FF085EF7FF037EF7FF0C0
:10FF0A0000F0010E0926000E0A220B220C220C50C8
:10FF1A000B100BE1500E095CC30E0A58D8A098EFDB
:10FF2A007FF09AEF7FF085EF7FF037EF7FF0C09E8A
:10FF3A00000E0D6E000E0E6E000E0F6E000E106E8D
:10FF4A0010500F100BE1500E0D5CC30E0E58D8A0C6
:10FF5A00B1EF7FF0B3EF7FF0B5EF7FF0CAEF7FF03C
:10FF6A0000F0010E0D26000E0E220F221022105054
:10FF7A000F100BE1500E0D5CC30E0E58D8A0C8EF3F
:10FF8A007FF0CAEF7FF0B5EF7FF0C08E000E116EE2
:10FF9A00000E126E000E136E000E146E14500DE158
:10FFAA00200E115CA10E1258070E1358D8A0E0EFCC
:10FFBA007FF0E2EF7FF0E4EF7FF037EF7FF000F0C1
:10FFCA00010E1126000E12221322142214500DE1E2
:10FFDA00200E115CA10E1258070E1358D8A0F8EF84
:10FFEA007FF0FAEF7FF0E4EF7FF037EF7FF0FEEF7C
:06FFFA007FF0FDEF7EF038
:020000040020DA
:10000000FF0FFF0FFF0FFF0FFF0FFF0FFF0FFF0F80
:10001000FF0FFF0FFF0FFF0FFF0FFF0FFF0FFF0F70
:10002000FF0FFF0FFF0FFF0FFF0FFF0FFF0FFF0F60
:10003000FF0FFF0FFF0FFF0FFF0FFF0FFF0FFF0F50
:020000040030CA
:0A0000008CFFFFFF9FFFFFFFFFFFD3
:00000001FF
