:040000000DEF00F010
:040008000EEF01F006
:10001800FF0082EF01F0EAEC01F00009D8B417EF15
:1000280000F019EF00F028EF00F02DEC02F03FECA3
:1000380002F0FF0E20EC02F039EC02F0000E106E18
:10004800000E0F6EA9EF00F02DEC02F00BEC02F0A1
:100058000009D8B432EF00F034EF00F046EF00F0BA
:1000680000EC02F00009D8B43CEF00F03EEF00F0DD
:1000780042EF00F0010E106E8AEF00F0020E106ED3
:100088008AEF00F000EC02F00009D8B44EEF00F05F
:1000980050EF00F054EF00F0030E106E8AEF00F0FE
:1000A800040E106E8AEF00F0C8EC01F03FEC02F08D
:1000B800DFEC01F00009D8B464EF00F066EF00F05F
:1000C800A7EF00F09AEC01F0A7EF00F0C8EC01F000
:1000D8003FEC02F0A7EF00F0DFEC01F00009D8B424
:1000E80078EF00F07AEF00F0A7EF00F066EF00F08D
:1000F800F5EC01F00009D8B484EF00F086EF00F0C9
:10010800A7EF00F0B1EC01F0A7EF00F01050156E6A
:10011800166A1650000AD8B494EF00F0A7EF00F062
:100128001550010AD8B458EF00F0030AD8B46AEFA2
:1001380000F0010AD8B470EF00F0070AD8B47CEFD9
:1001480000F0A7EF00F039EC02F01200C896C8984A
:10015800C086C098000E196E000E1A6E000E1B6E37
:10016800000E1C6E1C501B100BE1500E195CC30EC8
:100178001A58D8A0C2EF00F0C4EF00F0C6EF00F0A4
:10018800DBEF00F000F0010E1926000E1A221B22E8
:100198001C221C501B100BE1500E195CC30E1A5880
:1001A800D8A0D9EF00F0DBEF00F0C6EF00F0C09662
:1001B800C088000E1D6E000E1E6E000E1F6E000E13
:1001C800206E20501F100BE1500E1D5CC30E1E58F0
:1001D800D8A0F1EF00F0F3EF00F0F5EF00F0ACEF8E
:1001E80000F000F0010E1D26000E1E221F22202204
:1001F80020501F100BE1500E1D5CC30E1E58D8A0D6
:1002080008EF01F00AEF01F0F5EF00F0ACEF00F0B5
:100218000DEF00F06100E8F317F56100ECF318F555
:10022800AFA619EF01F01BEF01F031EF01F0BAA60C
:1002380020EF01F022EF01F031EF01F002D82FEFAB
:1002480001F00500FA6E0B50FD6E0C50FE6EF85072
:10025800FF6EFA50120061EF01F0AFA036EF01F027
:1002680038EF01F041EF01F0BAA03DEF01F03FEFA8
:1002780001F041EF01F022EF01F0AFA446EF01F0E9
:1002880048EF01F051EF01F0BAA44DEF01F04FEF44
:1002980001F051EF01F022EF01F0AFA256EF01F0AB
:1002A80058EF01F061EF01F0BAA25DEF01F05FEFE6
:1002B80001F061EF01F022EF01F0610060F4FBF45E
:1002C80061005CF4FAF411003CEC02F0126E0F507D
:1002D800D8A471EF01F073EF01F077EF01F012C5C8
:1002E8000EF580EF01F0600E0E24D96EDA6A050E65
:1002F800DA22610048F4DFF40F2A120001EE60F1FF
:10030800800EEE6AE806FDE101EE01F1130EEE6AD9
:10031800E806FDE10401080E5D6F000E5E6F000E39
:100328005F6F000EF86E0001AAEF00F0075008108A
:10033800D8B4A1EF01F0A3EF01F0B0EF01F002D8BB
:10034800B0EF01F00500FA6E0750FD6E0850FE6E22
:10035800F850FF6EFA501200120009500A10D8B473
:10036800B8EF01F0BAEF01F0C7EF01F002D8C7EF1C
:1003780001F00500FA6E0950FD6E0A50FE6EF85045
:10038800FF6EFA501200120005500610D8B4CFEFD5
:1003980001F0D1EF01F0DEEF01F002D8DEEF01F05D
:1003A8000500FA6E0550FD6E0650FE6EF850FF6EA1
:1003B800FA5012001200020199BBE5EF01F0E8EFD4
:1003C80001F0010EE9EF01F0000E120002019AB5EA
:1003D800F0EF01F0F3EF01F0010EF4EF01F0000E81
:1003E8001200020199B1FBEF01F0FEEF01F0010EDE
:1003F800FFEF01F0000E1200020198B906EF02F0BB
:1004080009EF02F0010E0AEF02F0000E12000201DD
:1004180098A711EF02F014EF02F0010E15EF02F0A9
:10042800000E1200600E0E24D96EDA6A050EDA226A
:10043800DF5028EC02F01200146E610050F48CF2C8
:10044800000E02018D6F1200146E610050F48BF2E1
:100458001200000E02019A6F120035EC02F0116EC4
:1004680012000201D8908E311200020194991200F4
:0C04780002018A51120002019985120055
:020000040020DA
:10000000FF0FFF0FFF0FFF0FFF0FFF0FFF0FFF0F80
:10001000FF0FFF0FFF0FFF0FFF0FFF0FFF0FFF0F70
:020000040030CA
:0A0000008CFFF7FF9FFFFFFFFFFFDB
:00000001FF
